:020000040800F2
:100000000004002001020008E14F0008E14F000851
:10001000E14F0008E14F0008E14F0008E14F000800
:10002000E14F0008E14F0008E14F0008614100087E
:10003000E14F0008E14F0008E14F0008E14F0008E0
:10004000E14F0008E14F0008E14F0008E14F0008D0
:10005000E14F0008E14F0008E14F0008E14F0008C0
:10006000E14F0008E14F0008E14F0008E14F0008B0
:10007000E14F0008E14F0008E14F0008E14F0008A0
:10008000E14F0008E14F0008E14F0008E14F000890
:10009000E14F0008E14F0008E14F0008E14F000880
:1000A000E14F0008E14F0008E14F0008E14F000870
:1000B000211E0008E14F0008E14F0008E14F000851
:1000C000E14F0008E14F0008E14F0008E14F000850
:1000D000E14F0008E14F0008E14F0008E14F000840
:1000E000E14F0008E14F0008E14F0008E14F000830
:1000F000E14F0008E14F0008E14F0008E14F000820
:10010000E14F0008E14F0008E14F0008E14F00080F
:10011000E14F0008E14F0008E14F0008E14F0008FF
:10012000E14F0008E14F0008E14F0008E14F0008EF
:10013000E14F0008E14F0008E14F0008E14F0008DF
:10014000E14F0008E14F0008E14F0008210C0008D2
:10015000E14F0008E14F0008E14F0008E14F0008BF
:10016000E14F0008E14F0008E14F0008E14F0008AF
:10017000E14F0008410C0008E14F0008E14F000882
:10018000E14F0008E14F0008E14F0008E14F00088F
:10019000E14F0008E14F0008E14F0008E14F00087F
:1001A000E14F0008E14F0008E14F0008E14F00086F
:1001B000E14F0008E14F0008E14F0008E14F00085F
:1001C000000000000000000000000000000000002F
:1001D000000000000000000000000000000000001F
:1001E000000000000000000000000000000000000F
:1001F00000000000000000000000000000000000FF
:1002000072B6224880F30988022080F31488BFF375
:100210006F8F04F095FE01F01BFB1D481D491E4A1F
:1002200091423CBF41F8040BFAE71C49174A91423E
:100230003CBF41F8040BFAE719491A4A1A4B9A4293
:100240003EBF51F8040B42F8040BF8E700201749B1
:10025000174A91423CBF41F8040BFAE704F088FECC
:1002600004F076FE134C144DAC4203DA54F8041B30
:100270008847F9E700F054FC104C114DAC4203DA0A
:1002800054F8041B8847F9E704F06ABE0008002010
:1002900055555555000000200004002000040020A2
:1002A000187C00080008002008080020080800202A
:1002B000A816002000020008000200080002000842
:1002C0000002000800000000000000000000000024
:1002D0002DE9F04FC1F80CD0C3689D46BDE8F08F02
:1002E00005F05EF906F034FB002383F311882846FD
:1002F000A047002006F004F906F022FB05F030F9D3
:1003000005F006FF05F04CF906F022FB00DFFEE7E2
:10031000844641EA000313F003036DD1403A41D310
:1003200051F8043B40F8043B51F8043B40F8043BCF
:1003300051F8043B40F8043B51F8043B40F8043BBF
:1003400051F8043B40F8043B51F8043B40F8043BAF
:1003500051F8043B40F8043B51F8043B40F8043B9F
:1003600051F8043B40F8043B51F8043B40F8043B8F
:1003700051F8043B40F8043B51F8043B40F8043B7F
:1003800051F8043B40F8043B51F8043B40F8043B6F
:1003900051F8043B40F8043B51F8043B40F8043B5F
:1003A000403ABDD2303211D351F8043B40F8043BFF
:1003B00051F8043B40F8043B51F8043B40F8043B3F
:1003C00051F8043B40F8043B103AEDD20C3205D30F
:1003D00051F8043B40F8043B043AF9D2043208D007
:1003E000D2071CBF11F8013B00F8013B01D30B8879
:1003F00003806046704700BF082A13D38B078DD057
:1004000010F003038AD0C3F10403D21ADB071CBF28
:1004100011F8013B00F8013B80D331F8023B20F892
:10042000023B7BE7043AD9D3013A11F8013B00F8CB
:10043000013BF9D20B7803704B7843708B78837053
:10044000604670470000000000000000000000004F
:1004500088B00390029101920093029B0593009B48
:10046000002B02D1029B049301E0009B0493039BA9
:100470000B330693059B019AB3FBF2F2019901FB42
:1004800002F29B1A0793079B30330793079B392B84
:1004900002DD079B07330793069B013B0693079BEF
:1004A000DAB2069B1A70059A019BB2FBF3F305932F
:1004B000049A019BB2FBF3F30493049B002BD9D164
:1004C000039B0B331A46069BD31A0793039B5A1CB4
:1004D0000392069A511C069112781A70079B013BF1
:1004E0000793079B002BF1D1039B184608B0704778
:1004F00000B585B003900291019203980299019A88
:100500000023FFF7A5FF0346184605B05DF804FB7E
:1005100000B591B003900291019200230993029BD0
:100520005A1C02921B788DF837309DF83730002B1B
:1005300001D1099B10E29DF83730252B0BD0039B8E
:100540001B689B689DF83720039811469847099BC4
:1005500001330993E3E704AB0F9304AB0E9300233D
:100560008DF82230029B1B782D2B05D1029B013385
:10057000029301238DF8223020238DF83630029B20
:100580001B78302B05D1029B0133029330238DF869
:10059000363000230A93029B5A1C02921B788DF876
:1005A00037309DF837302F2B09D99DF83730392B4C
:1005B00005D89DF83730303B8DF8373009E09DF88D
:1005C00037302A2B10D1019B1A1D01921B688DF820
:1005D00037300A9A13469B0013445B001A469DF875
:1005E000373013440A93D6E700230B939DF8373036
:1005F0002E2B29D1029B5A1C02921B788DF8373082
:100600009DF837302F2B09D99DF83730392B05D875
:100610009DF83730303B8DF8373009E09DF83730A2
:100620002A2B11D1019B1A1D01921B688DF83730BE
:100630000B9A13469B0013445B000B939DF83730D5
:100640000B9A13440B93D5E79DF837306C2B03D0EE
:100650009DF837304C2B0DD101238DF82330029BB0
:100660001B78002B1AD0029B5A1C02921B788DF823
:10067000373014E09DF83730402B05D99DF83730DE
:100680005A2B01D8012300E000238DF823309DF878
:10069000233003F001038DF8233000E000BF9DF804
:1006A0003730443B342B00F2E58001A252F823F0AE
:1006B000ED070008750800087508000875080008AF
:1006C00075080008ED07000875080008750800089F
:1006D0007508000875080008750800083F0800083C
:1006E00075080008750800087508000875080008F6
:1006F0007508000837080008750800087508000824
:100700002F0800087508000875080008750800081B
:1007100075080008750800087508000875080008C5
:1007200075080008750800087508000885070008A6
:10073000ED0700087508000875080008750800082E
:1007400075080008ED07000875080008750800081E
:100750007508000875080008750800083F080008BB
:100760007508000875080008750800089F0700084C
:1007700075080008370800087508000875080008A3
:100780002F08000820238DF836300F9B5A1C0F923B
:10079000019A111D01911268D2B21A7070E02023E3
:1007A0008DF83630019B1A1D01921B680E930E9B2B
:1007B000002B04D147F2F413C0F600030E930B9BF9
:1007C000002B02D147F6FF730B930E9B0F9302E0B1
:1007D0000F9B01330F930F9B1B78002B50D00B9B6B
:1007E000013B0B930B9B002BF2DA49E09DF8233081
:1007F000002B05D0019B1A1D01921B68079304E092
:10080000019B1A1D01921B680793079B002B07DAB7
:100810000F9B5A1C0F922D221A70079B5B42079365
:100820000F9807990A22FFF763FE0F9028E0102324
:100830008DF8373006E00A238DF8373002E00823C0
:100840008DF837309DF82330002B05D0019B1A1D01
:1008500001921B68079304E0019B1A1D01921B681B
:1008600007939DF837300F9807991A46FFF740FE17
:100870000F9005E00F9B5A1C0F929DF837201A70BD
:100880000F9A0E9BD31A0C930A9A0C9BD31A0A93B5
:100890000A9B002B01DA00230A939DF8223083F093
:1008A0000103DBB2002B02D00A9B5B420A930A9B36
:1008B000002B37DA0E9B1B782D2B13D19DF8363089
:1008C000302B0FD1039B1B689A680E9B591C0E910D
:1008D0001B78039819469047099B013309930C9B99
:1008E000013B0C93039B1B689B689DF83620039883
:1008F00011469847099B013309930A9B01330A93D8
:100900000A9B002BEED10DE0039B1B689A680E9B9F
:10091000591C0E911B78039819469047099B013387
:10092000099300E000BF0C9B013B0C930C9B002B38
:10093000EADA0DE0039B1B689B689DF8362003985C
:1009400011469847099B013309930A9B013B0A937F
:100950000A9B002BEED1E2E5184611B05DF804FBCE
:100960000EB400B584B0019006AB029301980599CE
:10097000029AFFF7CDFD0390039B184604B05DF883
:1009800004EB03B0704700BFAFF30080AFF300800B
:1009900082B020230193019B83F3118802B070473A
:1009A00082B000230193019B83F3118802B070474A
:1009B00008B5FFF7EDFF08BDAFF30080AFF300808F
:1009C00008B5FFF7EDFF08BDAFF30080AFF300807F
:1009D00008B5FFF7EDFF05F0C3FF04F001FE08BD09
:1009E00008B504F01DFE05F0C3FFFFF7E9FF08BDE1
:1009F00008B5FFF7EDFF08BDAFF30080AFF300804F
:100A000008B5FFF7EDFF08BDAFF30080AFF300803E
:100A100082B001908DF803108DF80220ADF80030FF
:100A20009DF80330022B08D0032B0BD0012B16D1DD
:100A300047F68023C0F6000312E047F6E023C0F635
:100A400000030DE09DF80230032B08D89DF802301A
:100A5000DA0047F68033C0F60003134400E00023B9
:100A6000184602B0704700BFAFF30080AFF30080BC
:100A700000B583B001900B468DF803309DF803302C
:100A8000052B34D801A252F823F000BFEF0A00086A
:100A9000EF0A0008A50A0008DB0A0008EF0A0008B0
:100AA000EF0A0008FFF794FF0198012147F6A032F2
:100AB000C0F6000203F064F80198022147F6D03234
:100AC000C0F6000203F05CF841F2F010C2F2000040
:100AD00002F0C6FBFFF784FF09E0FFF779FF41F260
:100AE000F010C2F2000002F0A3FBFFF779FF03B0A1
:100AF0005DF804FBAFF30080AFF30080AFF300803C
:100B000000B583B00190FFF773FF41F2F010C2F21D
:100B1000000002F01DFCFFF773FF03B05DF804FB5B
:100B200000B583B003F074FB04F022FC41F2F01036
:100B3000C2F2000002F0ECFA41F2F010C2F2000042
:100B400047F61041C0F6000102F022FB47F61043C1
:100B5000C0F600031B689A6E47F61043C0F6000308
:100B60001B689B6E9B6B23F40023936343F69820D2
:100B700005F0B6FC47F61043C0F600031B681846A4
:100B800047F60041C0F6000102F0BAFF47F61043F5
:100B9000C0F600031B689A6E47F61043C0F60003C8
:100BA0001B689B6E9B6B43F40023936341F2F01030
:100BB000C2F2000047F2FC11C0F60001FFF7D0FEC0
:100BC00041F2F013C2F200031B685B6941F2F010BE
:100BD000C2F200004FF47A7198470190019BB3F183
:100BE000FF3F0DD0019BDBB241F2F010C2F20000DA
:100BF00047F21021C0F600011A46FFF7B1FE09E0E6
:100C000041F2F010C2F2000047F21421C0F60001D8
:100C1000FFF7A6FEC82005F063FCD1E7AFF3008024
:100C200008B505F055FE04F01BFD40F60860C2F261
:100C3000000001F03DFF04F03BFD03F0A9FA08BD00
:100C400008B505F045FE04F00BFD40F6F070C2F269
:100C5000000001F02DFF04F02BFD03F099FA08BD10
:100C600000B583B040F60860C2F2000002F020FF39
:100C700040F60863C2F2000300229A6740F6086358
:100C8000C2F200034FF0A0429A6640F60863C2F237
:100C9000000347F6F002C0F60002DA6640F6086389
:100CA000C2F200030022DA67264B0193019B6033F6
:100CB00001981946FF2205F08BFB019B03F16002AE
:100CC000019B03F5B47310461946552205F080FBCD
:100CD00040F6F070C2F2000002F0EAFE40F6F07357
:100CE000C2F2000300229A6740F6F073C2F20003DA
:100CF0000022C4F204029A6640F6F073C2F20003C6
:100D000047F60012C0F60002DA6640F6F073C2F24F
:100D100000030022DA670C4B0093009B60330098BD
:100D20001946FF2205F054FB009B03F16002009B73
:100D300003F5B47310461946552205F049FB03B07C
:100D40005DF804FB880E002070100020AFF30080D7
:100D500000B587B00390039B9B6E0593039B1B78A4
:100D6000012B40F0DD80039A40F60863C2F20003D5
:100D70009A422DD14FF46053C4F202034FF46052F3
:100D8000C4F20202526B42F080025A634FF4605385
:100D9000C4F202034FF46052C4F20202526942F0FC
:100DA00080025A614FF46053C4F2020300225A6178
:100DB00043200E2100F04CFE059A4FF4A253C4F2DA
:100DC0000003D360059A0323C0F22023C2F8003841
:100DD000039A40F6F073C2F200039A4245D14FF4F1
:100DE0006053C4F202034FF46052C4F20202126B69
:100DF00042F000521A634FF46053C4F202034FF4FE
:100E00006052C4F20202126942F000521A614FF4B9
:100E10006053C4F2020300221A614FF46053C4F21B
:100E200002034FF46052C4F20202126B22F08042BD
:100E30001A634FF46053C4F202034FF46052C4F2D9
:100E40000202126D22F080421A654D200E2100F040
:100E5000FFFD059A4FF4A253C4F20003D360059A34
:100E60000323C0F22023C2F80038039B00225A67F4
:100E7000059B0022C3F8002E059BC0221A60059B2B
:100E80004FF450229A63039801F0A2F9059B0022C7
:100E90009A60039801F0BCF9059B0022C3F8102862
:100EA000059B0022C3F81428059B0022C3F81C28C8
:100EB000039B5B68DB68002B06D1059A4FF47053E7
:100EC000CCF23003936105E0059A43F60843CCF277
:100ED00030039361059B4FF0FF325A61039BDB6F38
:100EE000002B17D1039B8033039A009218464FF4CE
:100EF000B471022241F24173C0F6000305F080FA9A
:100F00000246039BDA67039BDB6F184601F0E8F8A3
:100F100005F066F8059B9B6843F00102059B9A600B
:100F200007B05DF804FB00BFAFF30080AFF30080B3
:100F300010B584B00190019B9B6E02930198002133
:100F400001F0C6F9029B0022C3F83428029B4FF03F
:100F50000112C3F81C280023039324E0029A039B88
:100F600048335B0113444FF000621A60029A039BFE
:100F700058335B0113444FF000621A60029A039BDE
:100F80005B01134403F608134FF0FF321A60029A14
:100F9000039B5B01134403F608334FF0FF321A60E2
:100FA000039B01330393019BDB6E9A68039B9A4278
:100FB000D4D2019801F0ACF9019BDB6E1A68029B58
:100FC0005A62019801F06CF9029BD3F8003823F4BF
:100FD000FE62029BC3F80028029B9B6943F44023F6
:100FE00043F01003029A9361029B0922C3F8102870
:100FF000029B0922C3F81428019A47F6C003C0F6E1
:101000000003D360029B0022C3F8102B402343F05F
:10101000805343F40043029AC2F8003B029B002233
:10102000C3F81029402343F0805343F40043029A4D
:10103000C2F8003940239B089BB21B041C46402386
:101040009B089BB20198194601F072F9034644EAE5
:101050000302029B9A6204B010BD00BFAFF3008090
:1010600084B00190019B9B6E0393039BD3F80038DF
:1010700023F4FE62019B93F866301B011A43039B25
:10108000C3F8002804B07047AFF30080AFF30080CE
:1010900030B587B001900B468DF80330019B9B6EF5
:1010A00003939DF80330019A02339B0013445B685D
:1010B0001B6803F00303032B00F2158101A252F811
:1010C00023F000BFD5100008E1100008ED10000863
:1010D000F91000084FF40043C1F20003059310E03B
:1010E0004FF40043C1F2040305930AE04FF40043B8
:1010F000C1F20803059304E04FF40043C1F20C036E
:1011000005939DF80330039A5B01134403F53163A3
:1011100000221A609DF80330019A02339B001344A9
:101120005B689B69002B20D09DF803009DF803307D
:10113000019A02339B0013445B685B8A1A46059B45
:101140001A43039900F158035B010B441A60039B97
:10115000D3F81C289DF803301033012101FA03F362
:101160001A43039BC3F81C281DE09DF803309DF82B
:1011700003200399583252010A44126822F40042B3
:10118000039958335B010B441A60039BD3F81C2866
:101190009DF803301033012101FA03F3DB431A40B9
:1011A000039BC3F81C289DF80330039A5B0113448A
:1011B00003F5116300221A609DF80330019A02338F
:1011C0009B0013445B685B69002B5DD09DF8033086
:1011D000019A02339B0013445B681B8A9B089BB2F5
:1011E00004939DF80330019A02339B0013445B681B
:1011F0009B8B012B0CD99DF80330019A02339B0085
:1012000013445B689B8B1A46049B02FB03F3049315
:101210009DF803305C1E049B1D040198049901F0A5
:1012200087F8034645EA0302039904F140039B0053
:101230000B445A609DF803300198194601F048F8B4
:101240009DF803009DF803309B051A46059B1A4341
:101250009DF80330019902339B000B445B681B8AA5
:101260001A43039900F148035B010B441A60039B86
:10127000D3F81C289DF80330012101FA03F31A4327
:10128000039BC3F81C282EE09DF80330013B039A12
:1012900040339B0013444FF48062C0F200225A6036
:1012A0009DF803300198194601F012F89DF80330BB
:1012B0009DF803200399483252010A44126822F42F
:1012C0000042039948335B010B441A60039BD3F837
:1012D0001C289DF80330012101FA03F3DB431A4077
:1012E000039BC3F81C2807B030BD00BFAFF30080DC
:1012F00084B001900B468DF80330019B9A6E9DF8E7
:10130000033058335B0113441B680393039B03F4BE
:101310000043002B01D1002307E0039B03F40013DB
:10132000002B01D0012300E00223184604B07047CF
:1013300084B001900B468DF80330019B9A6E9DF8A6
:10134000033048335B0113441B680393039B03F48E
:101350000043002B01D1002307E0039B03F400139B
:10136000002B01D0012300E00223184604B070478F
:1013700000B585B003900B4601928DF80B309DF8B7
:101380000B30039A02339B0013445B681B6A01987D
:1013900019460822FEF7BCFF05B05DF804FB00BF4C
:1013A00086B001900B468DF803309DF80330019A0A
:1013B00002339B0013445B689B690593059B1A6885
:1013C000059BDA609DF80330002B06D1059B1B6856
:1013D000402B02D9059B40221A60059B1A689DF894
:1013E0000330019902339B000B445B685B8A134412
:1013F0005A1E9DF80330019902339B000B445B6831
:101400005B8AB2FBF3F304939DF80330019A023335
:101410009B0013445B685B8A049A02FB03F303336B
:1014200023F003030393019B996E9DF80330049A04
:10143000D004039A024342F0C0425B010B4403F51F
:1014400031631A609DF80330019A02339B00134404
:101450005B681B6803F00303012B2CD1019B9B6E7F
:10146000D3F8083803F48073002B12D0019B996ED7
:101470009DF80330019A906E9DF803205832520176
:101480000244126842F0805258335B010B441A60E8
:1014900011E0019B996E9DF80330019A906E9DF8C2
:1014A0000320583252010244126842F0005258336D
:1014B0005B010B441A60019B996E9DF80330019A01
:1014C000906E9DF80320583252010244126842F097
:1014D000044258335B010B441A6006B0704700BFEA
:1014E00084B001900B468DF803309DF80330019ACB
:1014F00002339B0013445B685B690393039B1A6888
:10150000039BDA60039B1B68002B0BD1019B9A6E37
:101510009DF803305B01134403F511634FF400227F
:101520001A6031E09DF80330002B06D1039B1B6845
:10153000402B02D9039B40221A60039B1A689DF836
:101540000330019902339B000B445B681B8A1344F0
:101550005A1E9DF80330019902339B000B445B68CF
:101560001B8AB2FBF3F30293019B996E9DF8033043
:10157000029AD004039A1268024342F000525B01BF
:101580000B4403F511631A609DF80330019A02338E
:101590009B0013445B681B6803F00303012B2CD1F1
:1015A000019B9B6ED3F8083803F48073002B12D094
:1015B000019B996E9DF80330019A906E9DF803206F
:1015C000483252010244126842F0805248335B01B3
:1015D0000B441A6011E0019B996E9DF80330019A4B
:1015E000906E9DF80320483252010244126842F086
:1015F000005248335B010B441A60019B996E9DF8C1
:101600000330019A906E9DF8032048325201024443
:10161000126842F0044248335B010B441A60019B9C
:101620009B6E019A926ED2F834189DF80320012027
:1016300000FA02F20A43C3F8342804B0704700BF2E
:1016400082B001900B468DF80330019B996E9DF896
:101650000330019A906E9DF80320583252010244E3
:10166000126842F4001258335B010B441A6002B056
:10167000704700BFAFF30080AFF30080AFF300808E
:1016800082B001900B468DF80330019B996E9DF856
:101690000330019A906E9DF80320483252010244B3
:1016A000126842F4001248335B010B441A6002B026
:1016B000704700BFAFF30080AFF30080AFF300804E
:1016C00082B001900B468DF80330019B996E9DF816
:1016D0000330019A906E9DF8032058325201024463
:1016E000126822F4001258335B010B441A6002B0F6
:1016F000704700BFAFF30080AFF30080AFF300800E
:1017000082B001900B468DF80330019B996E9DF8D5
:101710000330019A906E9DF8032048325201024432
:10172000126822F4001248335B010B441A6002B0C5
:10173000704700BFAFF30080AFF30080AFF30080CD
:1017400000B589B00190019B0693069B9B6E0593A3
:1017500047F22020C0F6000000F0DAFC00F0E8FCC0
:10176000069B1B78012B09D0069B5B6F002B10D1C9
:10177000059B5B6903F01003002B0AD1059B9B6955
:1017800043F01002059B9A61069B7833184600F0DF
:10179000FFFC00F0D5FC00238DF81F304CE00698CC
:1017A00000F02EFE059B5B6903F01003002BF6D1C1
:1017B0009DF81F30012202FA03F30493069B5A6F2F
:1017C000049B1340002B32D000F0B2FC059B9B68B9
:1017D00023F00102059B9A60069B5A6F049BDB4332
:1017E0001A40069B5A6700F0ABFC9DF81F30069824
:1017F000194600F08DFE03468DF80F3000F098FC7E
:10180000059B9B6843F00102059B9A609DF80F3091
:1018100083F00103DBB2002B07D0059BD3F83428FB
:10182000049B1A43059BC3F8342800F089FC9DF8FB
:101830001F3001338DF81F309DF81F20069BDB6E93
:101840009B689A42AED900F073FC89E7AFF3008041
:1018500008B500F0B5F908BDAFF30080AFF3008024
:10186000704700BFAFF30080AFF30080AFF300809C
:1018700000B585B001900B468DF80330019B93F8BD
:101880004C30062B71D801A252F823F02F19000812
:10189000A9180008F71800082F1900082F190008C8
:1018A000151900083B190008019B6233184601F026
:1018B000E7FE03460393019B5A6D039B9A421AD29B
:1018C000019B5B6D019AD268128AB3FBF2F102FBB5
:1018D00001F29B1A002B0ED101F0C2FE01980021EB
:1018E0000022002302F0F4F901F0C2FE019B022263
:1018F00083F84C203FE0019B032283F84C2001F049
:10190000AFFE019800210022002302F091F901F0BE
:10191000AFFE30E0019B9B6D002B03D0019B9B6DC4
:1019200001989847019B002283F84C2023E047F65A
:10193000A000C0F6000003F07BFD01980021FFF736
:101940009FFE01980021FFF77BFE019B5B681B68EF
:10195000002B05D0019B5B681B6801980521984707
:10196000019B062283F84C2005E047F6A000C0F654
:10197000000003F05DFD05B05DF804FBAFF30080EF
:1019800000B583B001900B468DF80330019B93F8AE
:101990004C30062B50D801A252F823F0FD19000854
:1019A000FD190008FD190008D7190008B919000829
:1019B000FD190008091A0008019B052283F84C2034
:1019C00001F04EFE019800210022002302F080F970
:1019D00001F04EFE36E0019BDB689B695B68002BE3
:1019E00030D1019B9B6D002B03D0019B9B6D019817
:1019F0009847019B002283F84C2023E047F6B00073
:101A0000C0F6000003F014FD01980021FFF738FE36
:101A100001980021FFF714FE019B5B681B68002BF7
:101A200005D0019B5B681B68019805219847019BC5
:101A3000062283F84C2005E047F6B000C0F600000F
:101A400003F0F6FC03B05DF804FB00BFAFF30080C9
:101A500082B0019000914FF46143CEF20003009AEE
:101A6000D2B21201D2B201990B4403F540731A703D
:101A70004FF46143CEF20003019A5209019901F03B
:101A80001F01012000FA01F1603243F822104FF4E7
:101A90006143CEF20003019A5209019901F01F013E
:101AA000012000FA01F143F8221002B0704700BF94
:101AB0004FF4E043C4F200034FF4E042C4F20002EA
:101AC000126842F480721A604FF46053C4F2020349
:101AD0001B6F03F44073B3F5007F0CD04FF46053D9
:101AE000C4F202034FF480321A674FF46053C4F219
:101AF000020300221A674FF4E043C4F200034FF4DC
:101B0000E042C4F20002526822F400725A60704748
:101B100008B54FF46053C4F202031B694FF46053DD
:101B2000C4F202034FF0FF321A614FF46053C4F263
:101B3000020300221A614FF46053C4F202035B698E
:101B40004FF46053C4F202034FF0FF325A614FF476
:101B50006053C4F2020300225A614FF46053C4F28E
:101B600002034FF46052C4F20202126A62F0805221
:101B70001A624FF46053C4F2020300221A624FF457
:101B80006053C4F202035B6A4FF46053C4F2020371
:101B90004FF0FF325A624FF46053C4F20203002246
:101BA0005A624FF46053C4F202034FF46052C4F21D
:101BB0000202126C42F080521A64FFF779FF08BDEE
:101BC0004FF46053C4F202034FF080521A644FF492
:101BD000E043C4F200034FF440421A604FF46053F4
:101BE000C4F202034FF46052C4F20202126842F0DF
:101BF00001021A604FF46053C4F202031B6803F041
:101C00000203002BF6D04FF46053C4F202034FF4EA
:101C10006052C4F20202926822F003029A604FF40A
:101C20006053C4F202034FF46052C4F2020292689D
:101C30009A604FF46053C4F202039B6803F00C03F4
:101C4000002BF6D14FF46053C4F202034FF46052FC
:101C5000C4F20202126802F0F9021A604FF46053F3
:101C6000C4F2020300229A604FF46053C4F20203EC
:101C70004FF46052C4F20202126842F480321A60D9
:101C80004FF46053C4F202031B6803F40033002BCB
:101C9000F6D04FF46053C4F202034FF46052C4F222
:101CA0000202526F42F001025A674FF46053C4F2CD
:101CB00002035B6F03F00203002BF6D04FF4605376
:101CC000C4F2020345F20842C0F240725A604FF477
:101CD0006053C4F202034FF46052C4F2020212686D
:101CE00042F080721A604FF4E043C4F200035B6874
:101CF00003F48043002BF6D04FF46053C4F2020388
:101D00001B6803F00073002BF6D04FF46053C4F24D
:101D100002034FF41442C3F688029A604FF47053E2
:101D2000C4F2020340F205721A604FF46053C4F229
:101D300002034FF46052C4F20202926842F00202BF
:101D40009A604FF46053C4F202039B6803F00C03E3
:101D5000082BF6D14FF46053C4F202034FF46052E3
:101D6000C4F20202526C42F480425A644FF460534F
:101D7000C4F202034FF46052C4F20202526E42F403
:101D800080425A66704700BFAFF30080AFF3008017
:101D900082B020230193019B83F3118802B0704726
:101DA00082B000230193019B83F3118802B0704736
:101DB00008B5FFF7EDFF08BDAFF30080AFF300807B
:101DC00008B5FFF7EDFF08BDAFF30080AFF300806B
:101DD00008B5FFF7EDFF04F0C3FD03F001FC08BDFB
:101DE00008B503F01DFC04F0C3FDFFF7E9FF08BDD3
:101DF00008B5FFF7EDFF08BDAFF30080AFF300803B
:101E000008B5FFF7EDFF08BDAFF30080AFF300802A
:101E100008B503F01DFB08BDAFF30080AFF30080F1
:101E200008B504F055FD03F01BFC4FF080431B691F
:101E300003F00203002B09D04FF0804300221A6107
:101E4000FFF7D6FFFFF7E4FFFFF7DAFF03F030FC00
:101E500002F09EF908BD00BFAFF30080AFF3008031
:101E600008B54FF46053C4F202034FF46052C4F259
:101E70000202126C42F001021A644FF40053CEF2D7
:101E800004034FF40052CEF20402926842F00102C1
:101E90009A604FF0804342F2CF029A624FF0804343
:101EA0004FF0FF32DA624FF0804300229A614FF028
:101EB000804300225A634FF080430022DA604FF0E3
:101EC000804300225A604FF0804301225A614FF054
:101ED000804301221A601C200821FFF7B9FD08BDCC
:101EE00082B001900091009B5A68019B5A60009B50
:101EF0009A68019B9A60009BDA68019BDA60009BFC
:101F00001A69019B5A61009B5A69019B1A62009BE6
:101F10009A69019B5A62009B1A68019B1A6002B081
:101F2000704700BFAFF30080AFF30080AFF30080D5
:101F300000B583B001904FF46053C4F202034FF434
:101F40006052C4F20202126B6FEA52226FEA42221E
:101F50001A634FF46053C4F202034FF46052C4F2A8
:101F60000202126D6FEA52226FEA42221A65019B49
:101F70000020C4F202001946FFF7B2FF019B1C3398
:101F80004FF48060C4F202001946FFF7A9FF019BDD
:101F900038334FF40060C4F202001946FFF7A0FF87
:101FA000019B54334FF44060C4F202001946FFF71E
:101FB00097FF019B70334FF48050C4F20200194622
:101FC000FFF78EFF019B8C334FF4A050C4F2020048
:101FD0001946FFF785FF019BA8334FF4C050C4F2A8
:101FE00002001946FFF77CFF019BC4334FF4E05019
:101FF000C4F202001946FFF773FF019BE0334FF470
:102000000050C4F202001946FFF76AFF03B05DF802
:1020100004FB00BFAFF30080AFF30080AFF300809C
:1020200082B020230193019B83F3118802B0704793
:1020300082B000230193019B83F3118802B07047A3
:1020400008B5FFF7EDFF08BDAFF30080AFF30080E8
:1020500008B5FFF7EDFF08BDAFF30080AFF30080D8
:1020600008B5FFF7DDFF04F06BFC03F079FA08BD5B
:1020700008B503F095FA04F06BFC40F60803C2F2D1
:1020800000031A6840F60803C2F200039A4213D014
:1020900040F60803C2F200039B699A6840F6080301
:1020A000C2F200031B689B689A4205D247F65010A3
:1020B000C0F6000003F0BCF9FFF7BAFF08BD00BF8F
:1020C00008B5FFF7BDFF04F04BFC03F089FA08BD2B
:1020D00008B503F0A5FA04F04BFCFFF7B9FF08BD03
:1020E00000B583B00190019B93F82030022B05D0FE
:1020F00047F64010C0F6000003F09AF9019803F08B
:10210000EFFD0346184603B05DF804FBAFF3008013
:1021100082B0019040F60803C2F200039B69019A65
:102120009A6102B0704700BFAFF30080AFF3008048
:1021300008B5FFF795FF08BDAFF30080AFF300804F
:1021400008B5FFF795FF08BDAFF30080AFF300803F
:1021500008B5FFF7B5FF08BDAFF30080AFF300800F
:1021600008B5FFF7B5FF08BDAFF30080AFF30080FF
:1021700000B583B00190019803F08AF903B05DF8CF
:1021800004FB00BFAFF30080AFF30080AFF300802B
:1021900000B583B00190019804F002FA0346184696
:1021A00003B05DF804FB00BFAFF30080AFF3008025
:1021B00000B583B0019000910198009904F018FADD
:1021C00003B05DF804FB00BFAFF30080AFF3008005
:1021D00000B585B00190019B9B6E03932020FFF713
:1021E000C7FF039B01221A61039B1B6903F00103D4
:1021F000002BF9D11220FFF7BBFF039B1B69002BBB
:10220000FBDA05B05DF804FBAFF30080AFF30080AC
:1022100084B00190019B9B6E02930023039332E0F4
:10222000029A039B48335B01134400221A60029A0E
:10223000039B5B01134403F5116300221A60029AA9
:10224000039B5B01134403F608134FF0FF321A603F
:10225000029A039B58335B01134400221A60029ACE
:10226000039B5B01134403F5316300221A60029A59
:10227000039B5B01134403F608334FF0FF321A60EF
:10228000039B01330393019BDB6E9A68039B9A4285
:10229000C6D2029B4FF00112C3F81C2804B070474D
:1022A00000B585B00190019B9B6E0393039B1022A8
:1022B0001A61039B1B6903F01003002BF9D1122054
:1022C000FFF756FF05B05DF804FB00BFAFF30080D9
:1022D00000B585B001900091019B9B6E0393009B1C
:1022E0009B0143F02002039B1A61039B1B6903F0CF
:1022F0002003002BF9D11220FFF73AFF05B05DF85B
:1023000004FB00BFAFF30080AFF30080AFF30080A9
:1023100082B00190019BDB6E1A68019B1A6702B0C4
:10232000704700BFAFF30080AFF30080AFF30080D1
:1023300000B585B001900091019B1B6F0393019B39
:102340001A6F009B1A44019B1A67019B1A6F019B2D
:10235000DB6E5B689A4205D947F61010C0F60000A4
:1023600003F066F8039B184605B05DF804FB00BF58
:1023700000B585B0039002910192019B002B05D11D
:1023800047F62010C0F6000003F052F8029B1A68CE
:10239000039B1A60019B042B06D9019B043B01930C
:1023A000029B04330293F1E705B05DF804FB00BF24
:1023B00086B00390029101920093002305930023BD
:1023C000049317E0049B03F00303002B02D1039B4B
:1023D0001B680593049A009B9A4208D2029B5A1CE0
:1023E0000292059AD2B21A70059B1B0A0593049BB0
:1023F00001330493049A019B9A42E3D306B07047D9
:1024000010B586B00190019B9B6E1B6A0593059BDE
:1024100003F4F013B3F5002F72D0B3F5402F03D0BF
:10242000B3F5802F1CD06BE0059A47F6F07313408C
:102430001B090493059B03F00F030393019B9B6E01
:1024400003F580520199039B02339B000B445B68A8
:102450001B6A10461946049A0823FFF7A9FF4FE0AC
:10246000059A47F6F07313401B090493059B03F08C
:102470000F030393019B9B6E03F58051019A039B0D
:1024800002339B0013445B689B699A680198039B25
:1024900002339B0003445B689B691868019C039BA3
:1024A00002339B0023445B689B695B68C31A084640
:1024B0001146049AFFF77CFF019A039B02339B00AD
:1024C00013445B689A690199039B02339B000B4498
:1024D0005B689B699968049B0B449360019A039B1A
:1024E00002339B0013445B689A690199039B023392
:1024F0009B000B445B689B695968049B0B445360C9
:1025000006B010BDAFF30080AFF30080AFF30080E2
:1025100000B585B001900B468DF803309DF803306F
:10252000019A02339B0013445B685B695A689DF80B
:102530000330019902339B000B445B685B691B68A5
:102540009A4201D3012376E09DF80330019A0233C9
:102550009B0013445B685B691A689DF8033001991E
:1025600002339B000B445B685B695B68D31A03937F
:102570009DF80330019A02339B0013445B681B8A69
:102580001A46039B9A4208D29DF80330019A0233FF
:102590009B0013445B681B8A0393019B9A6E9DF812
:1025A00003305B01134403F618131B689BB29A00B7
:1025B000039B9A4201D200233DE0019B9A6E9DF855
:1025C000033001331B031A449DF803300199023391
:1025D0009B000B445B685B699B6810461946039A35
:1025E000FFF7C6FE9DF80330019A02339B001344A7
:1025F0005B685A699DF80330019902339B000B44D4
:102600005B685B699968039B0B4493609DF803309A
:10261000019A02339B0013445B685A699DF80330AA
:10262000019902339B000B445B685B695968039B0B
:102630000B44536072E7184605B05DF804FB00BF19
:1026400000B587B001900B468DF80330019B9B6E5F
:1026500005939DF80330059A5B01134403F60813B4
:102660001B6804939DF80330059A5B01134403F63D
:102670000813049A1A60049B03F00103002B51D045
:10268000059BD3F8103803F00103002B4AD09DF8C6
:102690000330019A02339B0013445B685B69039328
:1026A000039B1A68039BDB689A4214D2039BDA6887
:1026B000039B1B68D21A039B1A60039B00225A607B
:1026C000FFF746FD9DF8033001981946FEF708FF15
:1026D000FFF746FD26E0019B1B899AB29DF8033067
:1026E000012101FA03F39BB2DB439BB213409BB27F
:1026F0009AB2019B1A819DF80330019A02339B0024
:1027000013445B689B68002B0CD09DF80330019A42
:1027100002339B0013445B689B689DF8032001987B
:1027200011469847049B03F08003002B2BD0059B98
:10273000D3F834289DF80330012101FA03F3134044
:10274000002B20D0FFF704FD019B5A6F9DF803304A
:10275000012101FA03F31A43019B5A67059BD3F841
:1027600034289DF80330012101FA03F3DB431A40BA
:10277000059BC3F83428019B783318460021FFF7E6
:1027800017FDFFF7EDFC07B05DF804FBAFF3008029
:1027900000B587B001900B468DF80330019B9B6E0E
:1027A00005939DF80330059A5B01134403F6083343
:1027B0001B6804939DF80330059A5B01134403F6EC
:1027C0000833049A1A60049B03F00803002B13D00B
:1027D000059BD3F8143803F00803002B0CD09DF8A8
:1027E0000330019A02339B0013445B685B689DF8D9
:1027F0000320019811469847049B03F00103002B26
:1028000062D0059BD3F8143803F00103002B5BD092
:102810009DF80330019A02339B0013445B689B6967
:102820000393039B5A689DF80330019902339B0080
:102830000B445B685B8AB2FBF3F103FB01F3D31A31
:10284000002B1AD1039B1A68039BDB689A4214D2AF
:10285000039BDA68039B1B68D21A039B1A60039BD5
:1028600000225A60FFF774FC9DF803300198194666
:10287000FEF796FDFFF774FC26E0019B5B899AB298
:102880009DF80330012101FA03F39BB2DB439BB2B5
:1028900013409BB29AB2019B5A819DF80330019A72
:1028A00002339B0013445B68DB68002B0CD09DF85F
:1028B0000330019A02339B0013445B68DB689DF888
:1028C000032001981146984707B05DF804FB00BF4C
:1028D00000B585B00190019B9B6E029300238DF89B
:1028E0000F3080E09DF80F30029A48335B011344AB
:1028F0001B6803F44023B3F5802F6FD19DF80F3090
:10290000029A48335B0113441B68002B66DA9DF87A
:102910000F309DF80F200299483252010A44126884
:1029200042F09042029948335B010B441A609DF8D3
:102930000F30029A48335B0113441B68002BF6DB0F
:102940009DF80F3001981946FFF7C2FC019B1B89C7
:102950009AB29DF80F30012101FA03F39BB2DB43D9
:102960009BB213409BB29AB2019B1A819DF80F3023
:10297000019A02339B0013445B689B68002B0CD0C8
:102980009DF80F30019A02339B0013445B689B68EB
:102990009DF80F20019811469847FFF7D9FB029B3D
:1029A000D3F834289DF80F30012101FA03F3DB43FB
:1029B0001A40029BC3F83428019B5A6F9DF80F30D0
:1029C000012101FA03F31A43019B5A67019B7833F3
:1029D00018460021FFF7ECFBFFF7C2FB9DF80F3014
:1029E00001338DF80F309DF80F20019BDB6E9B6843
:1029F0009A427FF677AF05B05DF804FBAFF3008035
:102A000000B585B00190019B9B6E029300238DF869
:102A10000F3040E09DF80F30029A58335B011344A9
:102A20001B6803F44023B3F5802F2FD19DF80F309E
:102A3000029A58335B0113441B68002B26DA019B72
:102A40005B899AB29DF80F30012101FA03F39BB222
:102A5000DB439BB213409BB29AB2019B5A819DF813
:102A60000F30019A02339B0013445B68DB68002B34
:102A70000CD09DF80F30019A02339B0013445B6821
:102A8000DB689DF80F200198114698479DF80F309C
:102A900001338DF80F309DF80F20019BDB6E9B6892
:102AA0009A42B7D905B05DF804FB00BFAFF30080D0
:102AB00000B587B00190019B9B6E0593059B5B69F8
:102AC0000493059B9B69049A13400493059B049A05
:102AD0005A61049B03F48053002B06D0019B002213
:102AE0005A67019801F044F9F2E0049B002B19DACF
:102AF000059BD3F8003E03F00303002B07D0059B92
:102B0000D3F8003E23F00302059BC3F8002E059B7B
:102B1000D3F8043843F00102059BC3F80428019858
:102B200001F07EF9049B03F40063002B05D0019BA8
:102B300000225A67019801F05BF9049B03F40053EB
:102B4000002B17D0059BD3F8083803F00603002BA1
:102B500008D1059BDB6823F4705343F41052059BA6
:102B6000DA6007E0059BDB6823F4705343F4A0525E
:102B7000059BDA60049B03F00803002B09D0019B3E
:102B80005B68DB68002B04D0019B5B68DB68019805
:102B90009847049B03F48013002B02D00198FFF7A1
:102BA00097FE049B03F40013002B02D00198FFF75B
:102BB00027FF049B03F01003002B0FD0FFF7C8FA88
:102BC000059B9B6923F01002059B9A61019B78335A
:102BD00018460021FFF7ECFAFFF7C2FA059BD3F87D
:102BE00018380393049B03F48023002B35D0039BF8
:102BF00003F00103002B03D001980021FFF720FD13
:102C0000039B03F00203002B03D001980121FFF77F
:102C100017FD039B03F00403002B03D0019802214E
:102C2000FFF70EFD039B03F00803002B03D0019870
:102C30000321FFF705FD039B03F01003002B03D0D6
:102C400001980421FFF7FCFC039B03F02003002BF9
:102C500003D001980521FFF7F3FC049B03F4002344
:102C6000002B35D0039B03F48033002B03D0019855
:102C70000021FFF78DFD039B03F40033002B03D0ED
:102C800001980121FFF784FD039B03F48023002BAF
:102C900003D001980221FFF77BFD039B03F400237F
:102CA000002B03D001980321FFF772FD039B03F46F
:102CB0008013002B03D001980421FFF769FD039BCB
:102CC00003F40013002B03D001980521FFF760FDEA
:102CD00007B05DF804FB00BFAFF30080AFF30080E6
:102CE00008B502F065F803F02BFE02F039FC08BDD0
:102CF00008B502F055FC03F02BFE40F60803C2F2C3
:102D000000031A6840F60803C2F200039A4213D087
:102D100040F60803C2F200039B699A6840F6080374
:102D2000C2F200031B689B689A4205D247F2B0705A
:102D3000C0F6000002F07CFB02F042F808BD00BFC4
:102D400008B502F045F803F00BFE02F049FC08BD9F
:102D500008B502F065FC03F00BFE02F041F808BD77
:102D600082B00190019B019A1A6002B0704700BFC7
:102D700008B5FFF7B5FF08BDAFF30080AFF30080E3
:102D800008B5FFF7B5FF08BDAFF30080AFF30080D3
:102D900008B5FFF7D5FF08BDAFF30080AFF30080A3
:102DA00008B5FFF7D5FF08BDAFF30080AFF3008093
:102DB00000B583B001900198FFF7D2FF03B05DF832
:102DC00004FB00BFAFF30080AFF30080AFF30080DF
:102DD00000B583B0019000910198009902F008F8C5
:102DE00003B05DF804FB00BFAFF30080AFF30080D9
:102DF00000B585B0039002910192039BD3F884340F
:102E00001B681B78042B01D0002309E0039B40338F
:102E100018460299019A4FF0FF3301F0E1FE034694
:102E2000184605B05DF804FBAFF30080AFF30080F7
:102E300000B585B0039002910192039BD3F88434CE
:102E40001B681B78042B01D0002309E0039B0C3383
:102E500018460299019A4FF0FF3301F0A9FC03468E
:102E6000184605B05DF804FBAFF30080AFF30080B7
:102E700000B583B001900B468DF80330019BD3F869
:102E800084341B681B78042B02D06FF001030BE025
:102E9000019B03F140029DF80330104619464FF0A4
:102EA000FF3201F065FE0346184603B05DF804FBEF
:102EB00000B583B00190019BD3F884341B681B7864
:102EC000042B02D06FF0010307E0019B0C3318467E
:102ED0004FF0FF3101F03CFC0346184603B05DF8AB
:102EE00004FB00BFAFF30080AFF30080AFF30080BE
:102EF00000B585B003900B4601928DF80B30039B13
:102F0000D3F884341B681B78042B02D06FF00103C4
:102F10000AE0039B03F140029DF80B30104619466E
:102F2000019A01F025FE0346184605B05DF804FB42
:102F300000B583B001900091019BD3F884341B68E5
:102F40001B78042B02D06FF0010306E0019B0C33C9
:102F50001846009901F0FCFB0346184603B05DF8E3
:102F600004FB00BFAFF30080AFF30080AFF300803D
:102F700000B585B00390029101920093039BD3F8B2
:102F800084341B681B78042B01D0002308E0039BCA
:102F9000403318460299019A009B01F021FE034636
:102FA000184605B05DF804FBAFF30080AFF3008076
:102FB00000B585B00390029101920093039BD3F872
:102FC00084341B681B78042B01D0002308E0039B8A
:102FD0000C3318460299019A009B01F0E9FB034665
:102FE000184605B05DF804FBAFF30080AFF3008036
:102FF00000B585B00190019B1B6B0393039BD3F835
:1030000084341B681B78042B2CD1039B1B7A022B66
:1030100028D1039BD3F884341B685A89039BD3F8C7
:1030200084345B79012101FA03F39BB213409BB214
:10303000002B17D1039B0C33184601F0A9FA02901C
:10304000029B002B0ED0039BD3F884341A68039B99
:10305000D3F884345B7910461946029A4FF4807392
:1030600000F0E6FD05B05DF804FB00BFAFF30080A3
:1030700000B587B00190019B1B6B0593059BD3F8AE
:1030800084341B681B78042B2FD1059B1B7A022BE1
:103090002BD1059BD3F884341B681A89059BD3F880
:1030A00084341B79012101FA03F39BB213409BB2D4
:1030B000002B1BD1059B03F1400203AB10461946C0
:1030C00001F06EFC0490049B002B0FD0059BD3F8FD
:1030D00084341968059BD3F884341A79039B084615
:1030E0001146049A00F0F4FD00E000BF07B05DF85F
:1030F00004FB00BFAFF30080AFF30080AFF30080AC
:10310000704700BFAFF30080AFF30080AFF30080E3
:1031100000B585B00390039A47F28073C0F60003B0
:103120001360039B04331846FFF742FE039B012202
:103130001A72039B03F10C01039B03F1740242F624
:10314000F173C0F600030093039B019308461146F8
:103150004FF48072022301F0B3F9039B03F14001A5
:10316000039B03F51F7243F27103C0F60003009343
:10317000039B0193084611464FF48072022301F02D
:10318000A7FB05B05DF804FBAFF30080AFF3008050
:1031900000B585B001900091009B1B680393019BD3
:1031A000002B05D147F2A070C0F6000002F040F9F4
:1031B000FFF7DEFD019B1B7A012B09D0019B1B7AD7
:1031C000022B05D047F2A070C0F6000002F030F9E3
:1031D000009B1B79013B039A08339B001344019A1F
:1031E0005A60009B5B795A1E039B0E32019943F88B
:1031F0002210009B9B79002B08D0009B9B79013B00
:10320000039A08339B001344019A5A60019B009A69
:10321000C3F88424019B02221A72FFF7B1FD05B0A6
:103220005DF804FBAFF30080AFF30080AFF30080E4
:1032300000B583B00190019B043318460221FFF7CB
:10324000C7FD019B0C33184601F082F9019B403306
:10325000184601F085FB03B05DF804FBAFF3008076
:1032600000B585B00190019B0C33184601F070F950
:10327000019B4033184601F073FB019B0433184651
:103280000121FFF7A5FD019B0C33184601F080F9E1
:103290000390039B002B05D147F2C070C0F60000DD
:1032A00002F0C6F8019BD3F884341A68019BD3F866
:1032B00084345B7910461946039A4FF4807300F00A
:1032C000B7FC05B05DF804FBAFF30080AFF30080FE
:1032D00082B00190019B93F85C3003F06003202BD7
:1032E00032D1019B93F85D30212B04D0222B1ED0CC
:1032F000202B0ED026E0019A40F60003C2F2000314
:103300001365019B07225A65019B00229A650123E0
:103310001BE0019A40F60003C2F200031365019B13
:1033200007225A65019B00229A6501230DE0019B4B
:1033300000221A65019B00225A65019B00229A65B2
:10334000012302E0002300E00023184602B070478A
:1033500000B585B00190019BD3F884341B681B78BD
:10336000042B3CD1019B1B7A022B38D1019BD3F853
:1033700084341B681A89019BD3F884341B7901219A
:1033800001FA03F39BB213409BB2002B27D1019BA0
:103390004033184601F0BCFC0346002B1FD0019BB4
:1033A00003F1400202AB1046194601F0F9FA03900E
:1033B000039B002B05D147F2E070C0F6000002F03D
:1033C00037F8019BD3F884341968019BD3F884340F
:1033D0001A79029B08461146039A00F079FC05B061
:1033E0005DF804FBAFF30080AFF30080AFF3008023
:1033F00000B587B001900B468DF803309DF803307F
:10340000013B019A08339B0013445B680593059BBD
:10341000002B59D0FFF7BCFC059B0433184608214C
:10342000FFF7D6FC9DF80330019A02339B0013444A
:103430005B685B691B68002B04D0059B4033184612
:1034400001F0D6FA059B03F1400203AB1046194682
:1034500001F0A6FA0490049B002B08D0039B9DF872
:10346000032001981146049A00F032FC29E09DF8EF
:103470000330019A02339B0013445B685B691B684D
:10348000002B1ED09DF80330019A02339B00134499
:103490005B685B691A689DF80330019902339B00F1
:1034A0000B445B681B8A013B1340002B09D1019B35
:1034B0005C339DF80320019811461A46002300F062
:1034C00007FCFFF76DFC00E000BF07B05DF804FBF0
:1034D00000B585B001900B468DF803309DF80330A0
:1034E0005A1E019B0E3253F822300393039B002B8C
:1034F00036D0FFF74DFC039B043318460421FFF739
:1035000067FC039B03F10C02039BD3F88434196816
:10351000039BD3F884345B7902339B000B445B68D4
:103520009B695B681046194601F052F8039B0C3307
:10353000184601F02DF80290029B002B0ED0039B41
:10354000D3F884341A68039BD3F884345B7910462B
:103550001946029A4FF4807300F06AFBFFF720FCD3
:1035600005B05DF804FB00BFAFF30080AFF300804F
:1035700082B001900B468DF8033002B0704700BF57
:1035800082B020230193019B83F3118802B070471E
:1035900082B000230193019B83F3118802B070472E
:1035A00008B5FFF7EDFF08BDAFF30080AFF3008073
:1035B00008B5FFF7EDFF08BDAFF30080AFF3008063
:1035C00008B5FFF7DDFF03F0BBF901F0C9FF08BD47
:1035D00008B501F0E5FF03F0BBF940F60803C2F2BD
:1035E00000031A6840F60803C2F200039A4213D09F
:1035F00040F60803C2F200039B699A6840F608038C
:10360000C2F200031B689B689A4205D247F630005D
:10361000C0F6000001F00CFFFFF7BAFF08BD00BFC5
:1036200008B5FFF7BDFF03F09BF901F0D9FF08BD16
:1036300008B501F0F5FF03F09BF9FFF7B9FF08BDEE
:1036400008B5FFF7BDFF08BDAFF30080AFF3008002
:1036500008B5FFF7BDFF08BDAFF30080AFF30080F2
:1036600008B5FFF7DDFF08BDAFF30080AFF30080C2
:1036700008B5FFF7DDFF08BDAFF30080AFF30080B2
:1036800084B00190019B5A1C01921B78ADF80E305A
:10369000019B1B781B029AB2BDF80E3013439BB2FC
:1036A000ADF80E30BDF80E30184604B0704700BFBC
:1036B00000B583B00190019B93F85E20019B83F8D5
:1036C00066200198FDF7CCFC019B5B681B68002B12
:1036D00005D0019B5B681B68019801219847019BFD
:1036E00003221A7003B05DF804FB00BFAFF3008043
:1036F00070B584B00190019B93F85C3003F07F02B9
:10370000019B93F85D301B021343B3F5407F5AD001
:10371000B3F5407F12D8022B00F0F180022B05D8C0
:10372000002B28D0012B00F0DC80B5E1B3F5807FC1
:103730002ED0B3F5817F00F04581ADE1B3F5C06FC8
:1037400074D0B3F5C06F08D840F20232934200F053
:103750006E81B3F5A06F51D09EE1B3F5106F00F00C
:10376000988040F60242934200F0BB80B3F5006FB0
:1037700000F0828090E1019B03F16402019B1A65D5
:10378000019B02225A65019B00229A65012384E174
:10379000019B93F85E30012B13D1019BB3F8643089
:1037A00023F002039AB2019BA3F86420019B00223C
:1037B0001A65019B00225A65019B00229A6501232C
:1037C0006BE1002369E1019B93F85E30012B13D17B
:1037D000019BB3F8643043F002039AB2019BA3F853
:1037E0006420019B00221A65019B00225A65019BFF
:1037F00000229A65012350E100234EE1019B93F8DA
:103800005C30002B07D1019B93F85D30052B02D172
:103810000198FFF74DFF019B00221A65019B0022D2
:103820005A65019B00229A65012336E1019B5B6882
:103830005C68019B93F85F60019B93F85E50019B6D
:1038400060331846FFF71CFF0346019831462A46AD
:10385000A0470390039B002B01D100231DE1039B94
:103860005A68019B1A65039B1A68019B5A65019B64
:1038700000229A65012310E1019B03F16702019B7D
:103880001A65019B01225A65019B00229A6501235A
:1038900003E1019B93F85E20019B83F86720019B65
:1038A00093F86730002B03D1019B03221A7002E0CA
:1038B000019B04221A70019B5B681B68002B05D0DA
:1038C000019B5B681B68019802219847019B0022BD
:1038D0001A65019B00225A65019B00229A6501230B
:1038E000DBE0019A47F2F073C0F600031365019B19
:1038F00002225A65019B00229A650123CDE0019BBB
:1039000093F86030DBB25BB2002B2DDA019B93F8A9
:10391000603003F00F03DBB201981946FDF708FD94
:103920000346012B02D0022B0ED01BE0019A47F672
:103930001003C0F600031365019B02225A65019B28
:1039400000229A650123A8E0019A47F60003C0F619
:1039500000031365019B02225A65019B00229A65B0
:1039600001239AE0002398E0019B93F8603003F074
:103970000F03DBB201981946FDF7BAFC0346012B91
:1039800002D0022B0ED01BE0019A47F61003C0F6BE
:1039900000031365019B02225A65019B00229A6570
:1039A00001237AE0019A47F60003C0F6000313658D
:1039B000019B02225A65019B00229A6501236CE05B
:1039C00000236AE0019B93F85E30002B01D00023B6
:1039D00063E0019B93F8603003F00F03002B1BD0D2
:1039E000019B93F86030DBB25BB2002B0ADA019BDB
:1039F00093F8603003F00F03DBB201981946FDF72E
:103A00007FFE09E0019B93F8603003F00F03DBB207
:103A100001981946FDF754FE019B00221A65019B8F
:103A200000225A65019B00229A65012335E0019B23
:103A300093F85E30002B01D000232EE0019B93F819
:103A4000603003F00F03002B1BD0019B93F8603014
:103A5000DBB25BB2002B0ADA019B93F8603003F013
:103A60000F03DBB201981946FDF70AFE09E0019B3E
:103A700093F8603003F00F03DBB201981946FDF7AD
:103A8000DFFD019B00221A65019B00225A65019B04
:103A900000229A65012300E00023184604B070BD9F
:103AA00008B5FDF7DDF808BDAFF30080AFF3008087
:103AB00084B00190019B01221A70019B00225A6080
:103AC000002303930FE0019A039B08339B001344E8
:103AD00000225A60019B039A0E32002143F8221003
:103AE000039B01330393039B042BECD9019B00221E
:103AF0001A81019B00225A8104B07047AFF3008005
:103B000000B585B001900091019B002B02D0009B75
:103B1000002B05D147F62000C0F6000001F088FC1C
:103B2000FFF78EFD019B1B78012B09D0019B1B78B1
:103B3000022B05D047F62000C0F6000001F078FC0B
:103B4000019B009A5A600023039309E0019A039BAA
:103B500002339B00134400225A60039B01330393FA
:103B6000039B052BF2D90198FDF7F2F8019B022285
:103B70001A70FFF76DFD05B05DF804FBAFF3008030
:103B800000B585B003900B4601928DF80B3001F023
:103B9000B7FD039B002B02D0019B002B05D147F6FC
:103BA0004000C0F6000001F043FC039B1B78042B8F
:103BB00005D047F64000C0F6000001F039FC9DF842
:103BC0000B30039A02339B0013445B68002B05D033
:103BD00047F64000C0F6000001F02AFC9DF80B30CB
:103BE000039A02339B001344019A5A60019B5B695C
:103BF000002B06D0019B5B6918460021102202F0C1
:103C0000BFFE019B9B69002B06D0019B9B69184658
:103C10000021102202F0B4FE9DF80B3003981946E3
:103C2000FDF736FA05B05DF804FB00BFAFF3008086
:103C300000B587B00390019200930B468DF80B30CE
:103C400001F05EFD039B002B03D09DF80B30052B8C
:103C500005D947F66000C0F6000001F0E9FB039BC0
:103C60005A899DF80B30012101FA03F39BB21340EE
:103C70009BB2002B05D047F66000C0F6000001F0B3
:103C8000D7FB039B5A899DF80B30012101FA03F3FE
:103C90009BB213439AB2039B5A819DF80B30039A4F
:103CA00002339B0013445B689B690593059B019A53
:103CB0009A60059B009A1A60059B00225A609DF845
:103CC0000B3003981946FDF76BFB07B05DF804FB5A
:103CD00000B587B00390019200930B468DF80B302E
:103CE00001F00EFD039B002B03D09DF80B30052B3C
:103CF00005D947F68000C0F6000001F099FB039B50
:103D00001A899DF80B30012101FA03F39BB213408D
:103D10009BB2002B05D047F68000C0F6000001F0F2
:103D200087FB039B1A899DF80B30012101FA03F3ED
:103D30009BB213439AB2039B1A819DF80B30039AEE
:103D400002339B0013445B685B690593059B019AF2
:103D50009A60059B009A1A60059B00225A609DF8A4
:103D60000B3003981946FDF7BBFB07B05DF804FB69
:103D700000B585B00190019B02221A70019B0022C0
:103D8000A3F86420019B002283F86620019B002297
:103D900083F86720019B00221A81019B00225A812F
:103DA0000023039309E0019A039B02339B00134411
:103DB00000225A60039B01330393039B052BF2D926
:103DC000019B002283F84C200198FDF7B1F8019B7C
:103DD0005B681B68002B05D0019B5B681B68019822
:103DE0000021984705B05DF804FB00BFAFF30080E9
:103DF00000B583B00190019B05221A70019B5B689E
:103E00001B68002B05D0019B5B681B680198032190
:103E1000984703B05DF804FBAFF30080AFF3008078
:103E200000B583B00190019B04221A70019B5B686E
:103E30001B68002B05D0019B5B681B68019804215F
:103E4000984703B05DF804FBAFF30080AFF3008048
:103E500000B585B001900B468DF80330019B002220
:103E600083F84C20019B5C339DF803200198114698
:103E70001A46FDF77DFA019B5B689B68002B0AD010
:103E8000019B5B689B6801989847034683F0010398
:103E9000DBB2002B27D0019B93F85C3003F060036A
:103EA000002B08D10198FFF723FC034683F00103A0
:103EB000DBB2002B17D001980021FDF7E1FB019840
:103EC0000021FDF7BDFB019B5B681B68002B05D043
:103ED000019B5B681B68019805219847019B06229E
:103EE00083F84C205CE0019B62331846FFF7C8FB67
:103EF00003460393019B5A6D039B9A4202D9019B8F
:103F0000039A5A65019B93F85C30DBB25BB2002BDD
:103F100023DA019B5B6D002B10D0019B012283F8FB
:103F20004C20FFF79DFB019B1A6D019B5B6D019877
:103F30000021FFF7CDFEFFF79BFB31E0019B032241
:103F400083F84C20FFF78CFB01980021002200230E
:103F5000FFF76EFEFFF78CFB22E0019B5B6D002BF1
:103F600010D0019B042283F84C20FFF779FB019BC2
:103F70001A6D019B5B6D01980021FFF759FEFFF759
:103F800077FB0DE0019B052283F84C20FFF768FBCF
:103F90000198002100220023FFF79AFEFFF768FB3B
:103FA00005B05DF804FB00BFAFF30080AFF3008005
:103FB00008B500F08DFF02F0C3FC01F0D1FA08BD96
:103FC00008B501F0EDFA02F0C3FC40F60803C2F2B6
:103FD00000031A6840F60803C2F200039A4213D0A5
:103FE00040F60803C2F200039B699A6840F6080392
:103FF000C2F200031B689B689A4205D247F26060D8
:10400000C0F6000001F014FA00F06AFF08BD00BF1E
:1040100041F2A863C2F20003073323F007031A46F4
:1040200040F6E053C2F200031A6040F20003C2F20D
:10403000020323F007031A4640F6E453C2F20003DA
:104040001A607047AFF30080AFF30080AFF30080D9
:1040500000B585B00190FFF7ABFF019800F008F8BC
:104060000390FFF7ADFF039B184605B05DF804FB16
:1040700000B585B0019001F043FB019B073323F0AD
:104080000703019340F6E453C2F200031B681A468B
:1040900040F6E053C2F200031B68D31A1A46019B94
:1040A0009A4201D2002312E040F6E053C2F200032C
:1040B0001B68039340F6E053C2F200031A68019BA9
:1040C0001A4440F6E053C2F200031A60039B1846FC
:1040D00005B05DF804FB00BFAFF30080AFF30080D4
:1040E00008B540F6E853C2F2000344F25102C0F6AC
:1040F00000021A6040F6E853C2F2000300229A6000
:1041000040F6E853C2F200030022DA60014800F0F2
:10411000FFFE08BDF80D0020AFF30080AFF3008074
:1041200082B020230193019B83F3118802B0704772
:1041300082B000230193019B83F3118802B0704782
:1041400008B5FFF7EDFF08BDAFF30080AFF30080C7
:1041500008B5FFF7EDFF08BDAFF30080AFF30080B7
:1041600010B582B0EFF309831C4623460193019BEF
:1041700020330193019B0093009B83F30988FFF791
:10418000E7FF02B010BD00BFAFF30080AFF30080C7
:1041900010B582B0FFF7D4FF4FF46D43CEF20003A9
:1041A0005B6803F40063002B23D0EFF309831C4604
:1041B00023460193019B203B0193019B4FF08072AA
:1041C000DA61019B0093009B83F3098801F018FFDB
:1041D0000346002B06D0019A40F2F923C0F60003F3
:1041E000936108E0019A40F20C33C0F6000393613A
:1041F00001E0FFF7ADFF02B010BD00BFAFF30080DC
:10420000704700BFAFF30080AFF30080AFF30080D2
:1042100008B5FFF7F5FFFDF77BFC47F66010C0F629
:104220000000FDF785FEFFF73BFCFEF769FFFDF799
:1042300017FB00F035F808BDAFF30080AFF3008046
:1042400082B001904FF08043019A5A634FF080434F
:1042500000221A614FF080430222DA6002B07047F8
:104260004FF080430022DA60704700BFAFF3008058
:1042700082B001904FF08043019A5A6302B07047B8
:104280004FF08043DB6803F00203002B0CBF0023D8
:104290000123DBB218467047AFF30080AFF3008014
:1042A00008B5FDF7DDFD08BDAFF30080AFF300807A
:1042B00000B583B00190FFF7E3FF0346002B05D064
:1042C00047F27060C0F6000001F0B2F80198FFF705
:1042D000B7FF03B05DF804FBAFF30080AFF30080DD
:1042E00008B5FFF7BDFF08BDAFF30080AFF3008056
:1042F00000B583B00190FFF7C3FF034683F00103CD
:10430000DBB2002B05D047F28060C0F6000001F060
:104310008FF80198FFF7ACFF03B05DF804FB00BF16
:1043200082B020230193019B83F3118802B0704770
:1043300082B000230193019B83F3118802B0704780
:104340004FF080435B6A1846704700BFAFF30080B0
:1043500008B5FFF7F5FF0346184608BDAFF3008028
:1043600082B00190019B019A1A60019B019A5A60E8
:1043700002B07047AFF30080AFF30080AFF300806E
:1043800008B5FFF7CDFF02F0DBFA01F0E9F808BD50
:1043900008B501F005F902F0DBFA40F60803C2F2B5
:1043A00000031A6840F60803C2F200039A4213D0D1
:1043B00040F60803C2F200039B699A6840F60803BE
:1043C000C2F200031B689B689A4205D247F2C060A4
:1043D000C0F6000001F02CF8FFF7AAFF08BD00BFEF
:1043E00008B5FFF7B5FF0346184608BDAFF30080D8
:1043F00000B583B001900198FFF7B2FF03B05DF8FC
:1044000004FB00BFAFF30080AFF30080AFF3008088
:1044100008B5FFF7B5FF08BDAFF30080AFF300802C
:1044200008B5FFF7B5FF08BDAFF30080AFF300801C
:1044300008B5FFF7D5FF0346184608BDAFF3008067
:1044400000B583B001900198FFF7D2FF03B05DF88B
:1044500004FB00BFAFF30080AFF30080AFF3008038
:1044600000B583B0019000910198009902F0E8F83E
:104470000346184603B05DF804FB00BFAFF30080AD
:1044800000B583B0019000910198009902F0F8F80E
:1044900003B05DF804FB00BFAFF30080AFF3008012
:1044A00000B583B0019000910198009902F000F9E5
:1044B00003B05DF804FB00BFAFF30080AFF30080F2
:1044C00000B585B00390029101920093039B002BED
:1044D00005D0029B002B02D0019B012B05D847F28F
:1044E0009060C0F6000000F0A3FF039B1846FFF7A2
:1044F000A7FF039B00229A60039B029A1A61039B09
:10450000029ADA60019B0433009A02FB03F3029AD9
:104510001A44039B5A61019B1A1D039B9A61039BDA
:10452000009ADA61039B029A1A62039B00225A6284
:10453000039B00229A62039B069ADA62039B079A06
:104540001A6305B05DF804FBAFF30080AFF30080A1
:1045500000B583B0019001F0D3F8019B00229A606E
:10456000019B1A6A019B1A61019B1A6A019BDA601E
:10457000019B00225A62019B00229A62019B18460D
:104580006FF00101FFF78CFF03B05DF804FB00BF83
:1045900000B583B0019001F0B3F8019BDA68019B8C
:1045A0001B699A4205D1019B9B68002B01D0012316
:1045B00000E0002303F00103DBB2002B01D0002355
:1045C00002E0019BDB680433184603B05DF804FB8E
:1045D00000B583B00190009101F092F8009B002B90
:1045E00005D0019B9B691A1F009B9A4205D247F296
:1045F000A060C0F6000000F01BFF019BDA68019B81
:104600001B699A4205D1019B9B68002B01D00123B5
:1046100000E0002303F00103DBB2002B05D047F2DA
:10462000A060C0F6000000F003FF019BDB68009A69
:104630001A60019B9B685A1C019B9A60019BDA6877
:10464000019B9B691A44019BDA60019BDA68019B1C
:104650005B699A4203D3019B1A6A019BDA60019B52
:1046600018460021FFF70CFF03B05DF804FB00BF04
:1046700000B585B00190009101F05AF80AE0019B65
:1046800018460099FFF7ECFE0390039B002B01DA1C
:10469000039B1BE0019B9B68002BF0D0019B9B6858
:1046A000002B05D147F2D060C0F6000000F0C0FE3C
:1046B000019B1B691A1D019B5A62019B5A6A019B4F
:1046C0001B691B681A44019B9A620023184605B0B7
:1046D0005DF804FBAFF30080AFF30080AFF3008020
:1046E00000B583B0019001F023F8019B9B68002B7B
:1046F00005D147F2F060C0F6000000F099FE019B82
:104700009B685A1E019B9A60019B1A69019B9B69D9
:104710001A44019B1A61019B1A69019B5B699A42C9
:1047200003D3019B1A6A019B1A61019B00225A6202
:10473000019BDB6A002B03D0019BDB6A0198984741
:1047400003B05DF804FB00BFAFF30080AFF300805F
:1047500000B585B001900091FFF75AFE019B5B6A9E
:10476000002B0BD101980099FFF782FF0390039B68
:10477000002B03D0FFF754FE039B14E0019B5B6A00
:104780001B780393019B5B6A5A1C019B5A62019B35
:104790005A6A019B9B6A9A4202D30198FFF7A0FFD5
:1047A000FFF73EFE039B184605B05DF804FB00BF13
:1047B00000B58BB0039002910192009300230993FE
:1047C000FFF726FEFFF734FE0246009B13440693D4
:1047D000039B5B6A002B26D1009BB3F1FF3F02D005
:1047E000009B002B05D103980099FFF741FF07902C
:1047F00012E0FFF71DFE0346069AD31A0593059AA9
:10480000009B9A4203D9FFF70BFE099B5CE00398DB
:104810000599FFF72DFF0790079B002B03D0FFF7AB
:10482000FFFD099B50E0039B9B6A1A46039B5B6A52
:10483000D31A0893019A099BD21A089B9A4203D271
:10484000019A099BD31A0893089B402B13D9039B09
:104850005B6A029819464022FBF75AFD029B4033DF
:104860000293039B5B6A03F14002039B5A62099B1C
:104870004033099314E0039B5B6A02981946089A37
:10488000FBF746FD029A089B13440293039B5A6A66
:10489000089B1A44039B5A62099A089B1344099384
:1048A000039B5A6A039B9B6A9A4202D30398FFF7C1
:1048B00017FFFFF7B5FD099A019B9A4201D3099BA7
:1048C00002E0FFF7A5FD83E718460BB05DF804FB97
:1048D00000B585B00390029101920093039B002BD9
:1048E00005D0029B002B02D0019B012B05D847F27B
:1048F0001070C0F6000000F09BFD039B1846FFF708
:104900009FFD039B009A9A60039B029A1A61039B86
:10491000029ADA60019B0433009A02FB03F3029AC5
:104920001A44039B5A61019B1A1D039B9A61039BC6
:10493000009ADA61039B029A1A62039B00225A6270
:10494000039B00229A62039B069ADA62039B079AF2
:104950001A6305B05DF804FBAFF30080AFF300808D
:1049600000B583B0019000F0CBFE019BDA69019B9A
:104970009A60019B1A6A019B1A61019B1A6A019B4A
:10498000DA60019B00225A62019B00229A62019B1D
:1049900018466FF00101FFF783FD03B05DF804FBDB
:1049A00000B583B00190009100F0AAFE019BDA6887
:1049B000019B1B699A4205D1019B9B68002B01D08A
:1049C000012300E0002303F00103DBB2002B01D040
:1049D000002307E0019B1B691A68009B1A60019B7A
:1049E0001B690433184603B05DF804FBAFF3008085
:1049F00000B583B0019000F083FE019BDA68019B53
:104A00001B699A4205D1019B9B68002B01D00123B1
:104A100000E0002303F00103DBB2002B05D047F2D6
:104A20002070C0F6000000F003FD019B9B685A1C3B
:104A3000019B9A60019B1A69019B9B691A44019B27
:104A40001A61019B1A69019B5B699A4203D3019B1E
:104A50001A6A019B1A61019B18460021FFF710FD9D
:104A600003B05DF804FB00BFAFF30080AFF300803C
:104A700000B585B00190009100F05AFE0AE0019B5C
:104A800018460099FFF7ECFC0390039B002B01DA1A
:104A9000039B1AE0019B9B68002BF0D0019B9B6855
:104AA000002B05D147F24070C0F6000000F0C0FCBA
:104AB000019BDB681A1D019B5A62019BDA68019B0E
:104AC0009B691A44019B9A620023184605B05DF861
:104AD00004FB00BFAFF30080AFF30080AFF30080B2
:104AE00000B583B00190009100F022FE009B002BE6
:104AF00005D0019B9B691A1F009B9A4205D247F281
:104B00006070C0F6000000F093FC019B9B68002BD6
:104B100005D147F26070C0F6000000F089FC019BEF
:104B2000DB68009A1A60019B9B685A1E019B9A6081
:104B3000019BDA68019B9B691A44019BDA60019B27
:104B4000DA68019B5B699A4203D3019B1A6A019B55
:104B5000DA60019B00225A62019BDB6A002B03D0C2
:104B6000019BDB6A0198984703B05DF804FB00BF26
:104B700000B587B003900B4601928DF80B30FFF71C
:104B800047FC039B5B6A002B0BD103980199FFF74D
:104B90006FFF0590059B002B03D0FFF741FC059BA1
:104BA00019E0039B5B6A9DF80B201A70039B5B6AFC
:104BB0005A1C039B5A62039B5A6A039B9B6A9A4244
:104BC00006D3039B9B69043B03981946FFF788FFB4
:104BD000FFF726FC0023184607B05DF804FB00BF72
:104BE00000B58BB0039002910192009300230993CA
:104BF000FFF70EFCFFF71CFC0246009B13440693D4
:104C0000039B5B6A002B26D1009BB3F1FF3F02D0D0
:104C1000009B002B05D103980099FFF729FF07900F
:104C200012E0FFF705FC0346069AD31A0593059A8E
:104C3000009B9A4203D9FFF7F3FB099B60E00398BE
:104C40000599FFF715FF0790079B002B03D0FFF78F
:104C5000E7FB099B54E0039B9B6A1A46039B5B6A34
:104C6000D31A0893019A099BD21A089B9A4203D23D
:104C7000019A099BD31A0893089B402B13D9039BD5
:104C80005B6A184602994022FBF742FB029B4033C5
:104C90000293039B5B6A03F14002039B5A62099BE8
:104CA0004033099314E0039B5B6A18460299089A03
:104CB000FBF72EFB029A089B13440293039B5A6A4C
:104CC000089B1A44039B5A62099A089B1344099350
:104CD000039B5A6A039B9B6A9A4206D3039B9B6978
:104CE000043B03981946FFF7FBFEFFF799FB099A6F
:104CF000019B9A4201D3099B02E0FFF789FB7FE702
:104D000018460BB05DF804FBAFF30080AFF30080F2
:104D100000B585B0019000F0F3FC019BDA68019BBF
:104D20001B699A4205D1019B9B68002B01D001238E
:104D300000E0002303F00103DBB2002B2DD0019B28
:104D40005B6A002B29D0019B5B6A1A46019BDB68DA
:104D5000D31A043B0393039B002B1ED0019BDB68FB
:104D6000039A1A60019B9B685A1E019B9A60019BE3
:104D7000DA68019B9B691A44019BDA60019BDA683F
:104D8000019B5B699A4203D3019B1A6A019BDA601B
:104D9000019B00225A62012300E00023184605B05F
:104DA0005DF804FBAFF30080AFF30080AFF3008049
:104DB00082B020230193019B83F3118802B07047D6
:104DC00082B000230193019B83F3118802B07047E6
:104DD00008B5FFF7EDFF08BDAFF30080AFF300802B
:104DE00008B5FFF7EDFF08BDAFF30080AFF300801B
:104DF00000B585B00190009100F082FC019B002B72
:104E000005D147F23060C0F6000000F011FB019BB5
:104E10001B6803931AE0039BDA68009B1A43039B09
:104E2000DA60009B002B06D0039BDA68039B1B69AA
:104E30001340002B07D0039B5A68039B9B681046C6
:104E4000194600F00DF8039B1B680393039A019B1E
:104E50009A42E0D105B05DF804FB00BFAFF30080DB
:104E600000B583B00190009100F04AFC019B002B3B
:104E700005D147F25060C0F6000000F0D9FA019B5E
:104E80009A6B009B1A43019B9A63019B93F8203015
:104E90000A2B06D1019B9A6B019B5B6A1340002B86
:104EA0000DD1019B93F820300B2B0ED1019B9A6BF7
:104EB000019B5B6A1A40019B5B6A9A4205D1019B88
:104EC00000225A62019800F00BFF03B05DF804FB6A
:104ED00082B020230193019B83F3118802B07047B5
:104EE00082B000230193019B83F3118802B07047C5
:104EF00082B00190019B019A1A60019B019A5A604D
:104F000002B07047AFF30080AFF30080AFF30080D2
:104F100000B583B00190019B002B05D147F22060C2
:104F2000C0F6000000F084FA019B1846FFF7E0FF8E
:104F3000019B00229A6003B05DF804FBAFF3008090
:104F4000704700BFAFF30080AFF30080AFF3008085
:104F5000704700BFAFF30080AFF30080AFF3008075
:104F6000FEE700BFAFF30080AFF30080AFF3008037
:104F700084B047F2B043C0F600030393039B1B6861
:104F80000293039B5B68019309E0029B1A68019BF3
:104F90001A60019B04330193029B04330293039B29
:104FA0009A68019B9A42F0D805E0019B00221A60A2
:104FB000019B04330193039BDA68019B9A42F4D866
:104FC000039B10330393039A024B9A42D6D304B047
:104FD000704700BF30750008AFF30080AFF300806A
:104FE000FEE700BFAFF30080AFF30080AFF30080B7
:104FF00084B00190019B03F0070303934FF46D43CA
:10500000CEF20003DB680293029A4FF6FF031340CF
:105010000293039B1A02029B134343F0BF6343F4C2
:10502000003302934FF46D43CEF20003029ADA602C
:1050300004B07047AFF30080AFF30080AFF300809F
:1050400082B0034600918DF807309DF90730002BA0
:105050000FDA4FF46D43CEF200039DF8072002F003
:105060000F02111F009AD2B21201D2B20B441A766B
:105070000CE04FF46143CEF200039DF90710009A53
:10508000D2B21201D2B20B4483F8002302B07047AF
:1050900008B54FF46D43CEF2000300229A6003205E
:1050A000FFF7A6FF4EF6F053CEF200034EF6F05295
:1050B000CEF20002D26842F08072DA604FF4805380
:1050C000CEF200034FF48052CEF20002126842F09A
:1050D00001021A606FF004000121FFF7B1FF6FF0C9
:1050E00001000221FFF7ACFF08BD00BFAFF3008055
:1050F00082B020230193019B83F3118802B0704793
:1051000082B000230193019B83F3118802B07047A2
:1051100008B5FFF7EDFF08BDAFF30080AFF30080E7
:1051200008B5FFF7EDFF08BDAFF30080AFF30080D7
:1051300072B67047AFF30080AFF30080AFF300802A
:1051400082B000230193019B83F3118862B602B001
:10515000704700BFAFF30080AFF30080AFF3008073
:10516000704700BFAFF30080AFF30080AFF3008063
:105170004FF48053CEF200035B681846704700BFBF
:105180004FF080435B6A1846704700BFAFF3008062
:1051900008B5FFF7A5F808BDAFF30080AFF30080B6
:1051A00000B583B001900198FFF7A2F803B05DF855
:1051B00004FB00BFAFF30080AFF30080AFF30080CB
:1051C00008B5FFF7DDFF0346184608BDAFF30080C2
:1051D00008B500F0ADF9FFF7B3FF08BDAFF30080ED
:1051E00008B5FFF795FF01F0BBFB00F0F9F908BD2A
:1051F00008B500F015FA01F0BBFBFFF791FF08BD01
:1052000008B5FFF7DDFF0346184608BDAFF3008081
:1052100000B585B000F074FA40F60803C2F200034E
:10522000DB690393FFF7ECFF029039E040F60803D7
:10523000C2F200039A6A039B9B681A4440F6080373
:10524000C2F200039A62039B1B68384A5A60039BB0
:105250001A6840F60803C2F20003DA61039BDB68B8
:105260000093039B0022DA6040F60803C2F20003B9
:10527000DA692E4B9A4201D1FFF78AFFFFF7B8FF98
:10528000039B1A69009B10469847FFF7A9FF40F659
:105290000803C2F20003DB690393FFF7B1FF02903A
:1052A000039B9A6840F60803C2F200039B6A0299C6
:1052B000CB1A9A42BAD940F60803C2F20003DA695F
:1052C0001A4B9A422FD040F60803C2F200039A6AA2
:1052D000039B9B681A44029BD31A0193019B012BE9
:1052E00001D802230193029A019B13441846FFF749
:1052F00057FFFFF785FF024640F60803C2F200039E
:105300009B6AD21A0299019B194440F60803C2F223
:1053100000039B6ACB1A9A4205D947F23050C0F677
:10532000000000F085F805B05DF804FB24080020BB
:1053300082B0019040F60803C2F200039B69019A13
:105340009A6102B0704700BFAFF30080AFF30080F6
:1053500082B001900091019B009A9A6102B070475F
:1053600000B583B00190FFF7FBFEFCE7AFF30080D0
:1053700000B585B0FFF78CFE00F092FC00F088FAD3
:1053800001F0EEF9FEF744FEFEF7AAFE01F080FA06
:1053900000F0E6F92148402100F0CAFF024640F63D
:1053A0000803C2F200039A6140F60803C2F2000348
:1053B0009B69012283F8202040F60803C2F2000313
:1053C0009A6940F20043C2F20003D36140F6080339
:1053D000C2F200039B694833184601F0F9F9FFF760
:1053E000F7FE47F20060C0F60000FFF7A1FF0023C0
:1053F00000930B48F821012245F26133C0F6000307
:1054000001F03EF80390039847F24041C0F60001D6
:10541000FFF79EFF05B05DF804FB00BF480C0020BD
:10542000E80C0020AFF30080AFF30080AFF3008002
:1054300000B583B00190FFF77BFE40F60803C2F28F
:105440000003019ADA62FEE7AFF30080AFF3008059
:1054500008B500F055F9FFF7DBFE08BDAFF300809B
:1054600084B0039002910192039A029BD21A01998F
:10547000029BCB1A9A422CBF00230123DBB21846B1
:1054800004B07047AFF30080AFF30080AFF300804B
:1054900000B585B00190FFF76BFE0390039A019B66
:1054A00013440293FFF764FE034618460399029AD9
:1054B000FFF7D6FF0346002BF4D105B05DF804FBDF
:1054C00082B020230193019B83F3118802B07047BF
:1054D00082B000230193019B83F3118802B07047CF
:1054E00008B5FFF7EDFF08BDAFF30080AFF3008014
:1054F00008B5FFF7EDFF08BDAFF30080AFF3008004
:105500004FF080435B6A1846704700BFAFF30080DE
:1055100008B5FFF7F5FF0346184608BDAFF3008056
:1055200008B5FFF7F5FF0346184608BDAFF3008046
:1055300008B540F60803C2F200031B6B002B06D12E
:1055400040F60803C2F200035B6B002B05D047F264
:105550005840C0F60000FFF76BFF08BDAFF30080B6
:1055600008B540F60803C2F200031B6B002B06D1FE
:1055700040F60803C2F200035B6B002B05D047F234
:105580006040C0F60000FFF753FF40F60803C2F288
:10559000000301225A6308BDAFF30080AFF300801F
:1055A00008B540F60803C2F200031B6B002B06D1BE
:1055B00040F60803C2F200035B6B002B05DC47F2E8
:1055C0006840C0F60000FFF733FF40F60803C2F260
:1055D000000300225A6308BDAFF30080AFF30080E0
:1055E00008B540F60803C2F200031B6B002B06DD72
:1055F00040F60803C2F200035B6B002B05D047F2B4
:105600007040C0F60000FFF713FF40F60803C2F237
:10561000000301225A6308BDAFF30080AFF300809E
:1056200008B540F60803C2F200031B6B002B06DD31
:1056300040F60803C2F200035B6B002B05DC47F267
:105640007840C0F60000FFF7F3FE40F60803C2F210
:10565000000300225A6308BDAFF30080AFF300805F
:1056600008B5FFF73DFF40F60803C2F200031B6BCD
:10567000002B06DB40F60803C2F200035B6B002B35
:1056800005D047F28040C0F60000FFF7D1FE40F69B
:105690000803C2F200031B6B5A1C40F60803C2F257
:1056A00000031A63FFF724FF08BD00BFAFF30080BB
:1056B00008B5FFF715FF40F60803C2F200031B6BA5
:1056C000002B06DD40F60803C2F200035B6B002BE3
:1056D00005D047F28840C0F60000FFF7A9FE40F66B
:1056E0000803C2F200031B6B5A1E40F60803C2F205
:1056F00000031A63FFF7FCFE08BD00BFAFF3008094
:1057000008B540F60803C2F200031B6B002B06DB52
:1057100040F60803C2F200035B6B002B05DC47F286
:105720009040C0F60000FFF783FE08BDAFF3008095
:1057300008B540F60803C2F200031B6B002B06D12C
:1057400040F60803C2F200035B6B002B05DC47F256
:105750009840C0F60000FFF76BFE08BDAFF3008075
:1057600040F60803C2F2000340229A6340F60803A1
:10577000C2F20003014ADA63704700BF4808002004
:1057800010B582B0019040F60803C2F20003DC6B52
:10579000FFF7C6FE0346236040F60803C2F200038B
:1057A000DA6B40F60803C2F200039B69536040F6CF
:1057B0000803C2F20003DB6B019A526A9A6040F65A
:1057C0000803C2F20003DB6B019A92F820201A73DF
:1057D00040F60803C2F20003DB6B03F1100240F64F
:1057E0000803C2F20003DA6340F60803C2F20003C2
:1057F000DA6B054B9A4205D340F60803C2F2000368
:10580000024ADA6302B010BD480C002048080020AC
:105810004FF080435B6A1846704700BFAFF30080CB
:1058200000B583B001900198FEF742FD03B05DF82A
:1058300004FB00BFAFF30080AFF30080AFF3008044
:1058400008B5FEF74DFD08BDAFF30080AFF3008053
:1058500000B583B001900198FEF74AFD03B05DF8F2
:1058600004FB00BFAFF30080AFF30080AFF3008014
:1058700008B5FFF7CDFF0346184608BDAFF300801B
:1058800008B5FFF7F5FF0346184608BDAFF30080E3
:1058900040F60803C2F200030A4ADA6140F6080340
:1058A000C2F20003074A1A6240F60803C2F200037C
:1058B0004FF0FF325A6240F60803C2F200030022A2
:1058C0009A62704724080020AFF30080AFF3008095
:1058D00000B589B00390029101920093FFF710FF89
:1058E000039B002B05D0019B002B02D0029B002BB9
:1058F00005D147F24050C0F60000FFF799FD039B29
:10590000009A1A61039B019ADA60FFF7B9FF0590CC
:10591000029B012B01D80223029340F60803C2F236
:105920000003DA693D4B9A4225D140F60803C2F2E2
:105930000003059A9A6240F60803C2F20003039A34
:10594000DA6140F60803C2F20003039A1A62039B6D
:10595000324A1A60039B314A5A60039B029A9A604A
:1059600040F60803C2F200039A6A029B13441846E9
:10597000FFF756FF4FE0059A029B1A4440F60803D2
:10598000C2F200039B6AD31A069340F60803C2F2E0
:105990000003DB699A68069B9A4209D940F608031E
:1059A000C2F200039A6A069B13441846FFF750FFA1
:1059B00040F60803C2F20003DB69079307E0079B88
:1059C0009B68069AD31A0693079B1B680793079B4D
:1059D0009A68069B9A42F2D3039B079A1A60039B2C
:1059E0001B685A68039B5A60039B5B68039A1A60A2
:1059F000079B039A5A60039B069A9A60079B9A68D2
:105A0000069BD21A079B9A6040F60803C2F2000375
:105A10004FF0FF325A6209B05DF804FB2408002001
:105A200000B585B00190FFF76BFE019B002B05D1FF
:105A300047F25050C0F60000FFF7FAFC019BDB680C
:105A4000002B05D147F25050C0F60000FFF7F0FCE4
:105A500040F60803C2F20003DA69019B9A421BD0A8
:105A6000019B5B68019A12681A60019B1B68019A8E
:105A700052685A60019B0022DA60019B1A68344B1D
:105A80009A4261D0019B1B68019A12689168019A41
:105A900092680A449A6057E0019B1A6840F608032E
:105AA000C2F20003DA6140F60803C2F20003DB69C8
:105AB000274A5A60019B0022DA6040F60803C2F2CE
:105AC0000003DA69224B9A4202D1FFF7B9FE3BE0AC
:105AD00040F60803C2F20003DA6940F60803C2F296
