:020000040800F2
:10000000000400200102000881EE000881EE0008D3
:1000100081EE000881EE000881EE000881EE000804
:1000200081EE000881EE000881EE0008E1B90008C9
:1000300081EE000881EE000881EE000881EE0008E4
:1000400081EE000881EE000881EE000881EE0008D4
:1000500081EE000881EE000881EE000881EE0008C4
:1000600081EE000881EE000881EE000881EE0008B4
:1000700081EE000881EE000881EE000881EE0008A4
:1000800081EE000881EE000881EE000881EE000894
:1000900081EE000881EE000881EE000881EE000884
:1000A00081EE000881EE000881EE000881EE000874
:1000B0002192000881EE000881EE000881EE000820
:1000C00081EE000881EE000881EE000881EE000854
:1000D00081EE000881EE000881EE000881EE000844
:1000E00081EE000881EE000881EE000881EE000834
:1000F00081EE000881EE000881EE000881EE000824
:1001000081EE000881EE000881EE000881EE000813
:1001100081EE000881EE000881EE000881EE000803
:1001200081EE000881EE000881EE000881EE0008F3
:1001300081EE000881EE000881EE000881EE0008E3
:1001400081EE000881EE000881EE0008317500089C
:1001500081EE000881EE000881EE000881EE0008C3
:1001600081EE000881EE000881EE000881EE0008B3
:1001700081EE00085175000881EE000881EE00084C
:1001800081EE000881EE000881EE000881EE000893
:1001900081EE000881EE000881EE000881EE000883
:1001A00081EE000881EE000881EE000881EE000873
:1001B00081EE000881EE000881EE000881EE000863
:1001C000000000000000000000000000000000002F
:1001D000000000000000000000000000000000001F
:1001E000000000000000000000000000000000000F
:1001F00000000000000000000000000000000000FF
:1002000072B6224880F30988022080F31488BFF375
:100210006F8F0EF0E5FD07F0A3FF1D481D491E4A34
:1002200091423CBF41F8040BFAE71C49174A91423E
:100230003CBF41F8040BFAE719491A4A1A4B9A4293
:100240003EBF51F8040B42F8040BF8E700201749B1
:10025000174A91423CBF41F8040BFAE70EF0D8FD73
:100260000EF0C6FD134C144DAC4203DA54F8041BD7
:100270008847F9E700F084FF104C114DAC4203DAD7
:1002800054F8041B8847F9E70EF0BABD00080020B7
:1002900055555555000000200004002000040020A2
:1002A0003826010800080020500D0020500D0020C5
:1002B0007825002000020008000200080002000863
:1002C0000002000800000000000000000000000024
:1002D0002DE9F04FC1F80CD0C3689D46BDE8F08F02
:1002E0000FF01EFA0DF054FE002383F31188284608
:1002F000A04700200DF0DCFB0DF042FE0FF0F0F9FE
:1003000010F00EF80FF00CFA0DF042FE00DFFEE7E1
:10031000844641EA000313F003036DD1403A41D310
:1003200051F8043B40F8043B51F8043B40F8043BCF
:1003300051F8043B40F8043B51F8043B40F8043BBF
:1003400051F8043B40F8043B51F8043B40F8043BAF
:1003500051F8043B40F8043B51F8043B40F8043B9F
:1003600051F8043B40F8043B51F8043B40F8043B8F
:1003700051F8043B40F8043B51F8043B40F8043B7F
:1003800051F8043B40F8043B51F8043B40F8043B6F
:1003900051F8043B40F8043B51F8043B40F8043B5F
:1003A000403ABDD2303211D351F8043B40F8043BFF
:1003B00051F8043B40F8043B51F8043B40F8043B3F
:1003C00051F8043B40F8043B103AEDD20C3205D30F
:1003D00051F8043B40F8043B043AF9D2043208D007
:1003E000D2071CBF11F8013B00F8013B01D30B8879
:1003F00003806046704700BF082A13D38B078DD057
:1004000010F003038AD0C3F10403D21ADB071CBF28
:1004100011F8013B00F8013B80D331F8023B20F892
:10042000023B7BE7043AD9D3013A11F8013B00F8CB
:10043000013BF9D20B7803704B7843708B78837053
:10044000604670470000000000000000000000004F
:1004500040EA010C1CF0070F23D1BDF1100DCDE9CE
:100460000245CDE900676FF000064FF0000700BFBE
:10047000F0E80223F1E80245A24282FA46FCA7FA1C
:1004800086FC08BFBCF1000F40F0D780AB4283FA76
:1004900046FCA7FA86FC08BFBCF1000F40F0CA80FA
:1004A000E6E710F0030C21D020F0030050F8042BF5
:1004B0005FEACC7C08D00FD211F801CB5FFA92F33F
:1004C000B3EB0C0C10D17BB111F801CB5FFAA2F3A6
:1004D000B3EB0C0C08D13BB111F801CB5FFAB2F3CE
:1004E000B3EB0C0C00D10BB960467047BDF1100D99
:1004F000CDE90245CDE900676FF000064FF0000737
:1005000011F0030C2DD110F0040F0DD050F8042B76
:1005100051F8044BA24282FA46FCA7FA86FC08BFB7
:10052000BCF1000F40F0898011F0040F9FD051F80A
:10053000045B00BFF0E80223AA4282FA46FCA7FA55
:1005400086FC08BFBCF1000F71D1F1E80245A3425F
:1005500083FA46FCA7FA86FC08BFBCF1000F63D102
:10056000E8E721F00301BCF1020F1ED03BDA51F89D
:10057000045B00BF50F8043B4FEA152583FA46FCA4
:10058000A7FA86FCB7EB0C2F03EA162208BFAA4293
:100590004DD151F8045BBCF1000F82EA03034FEA2E
:1005A000056208BF93423CD1E4E751F8045B00BF09
:1005B00050F8043B4FEA154583FA46FCA7FA86FC3F
:1005C000B7EB0C4F03EA164208BFAA422FD151F8ED
:1005D000045BBCF1000F82EA03034FEA054208BF47
:1005E00093421ED1E4E751F8045B00BF50F8043B8E
:1005F0004FEA156583FA46FCA7FA86FCB7EB0C6F49
:1006000003EA166208BFAA4211D151F8045BBCF19B
:10061000000F82EA03034FEA052208BF934200D18C
:10062000E4E719BA12BA0AE019BA22BA07E011BA15
:100630002ABA04E019BA2ABA01E011BA22BA9CFA1D
:100640008CF0DDE90067DDE902451DF1100D38B1E0
:10065000B0FA80F0C0F1180021FA00F122FA00F29D
:100660000120914298BF8041704700BF0000000008
:1006700008B541F65470C2F2000001F0F1FE08BD69
:1006800000B583B0019001F093FE41F65470C2F2C0
:10069000000001F0EDFE01980DF01AFA03B05DF8CC
:1006A00004FB00BFAFF30080AFF30080AFF3008026
:1006B00000B587B0059004910392059B009300203C
:1006C0000499039A42F2E163C0F600030DF030FD95
:1006D0000346184607B05DF804FB00BFAFF3008087
:1006E00000B587B0039002910192029B059300E050
:1006F00000BF039B1B685B680DF113020398114652
:10070000012298470346002B01D101235EE09DF8AA
:100710001330042B08D1039840F6F001C0F6010114
:1007200000F0E6FA012351E09DF81330082B03D0C6
:100730009DF813307F2B1DD1059A029B9A42D7D08A
:10074000039B1B689B689DF81320039811469847EC
:10075000039B1B689B68039820219847039B1B6899
:100760009B689DF81320039811469847059B013B11
:100770000593BEE79DF813300D2B0BD1039840F67F
:10078000F401C0F6010100F0B3FA059B00221A70D3
:1007900000231BE09DF813301F2B01D800BFA8E7F2
:1007A000019B013B029A1A44059B9A42A1D9039BE3
:1007B0001B689B689DF81320039811469847059B7A
:1007C0005A1C05929DF813201A7092E7184607B03C
:1007D0005DF804FBAFF30080AFF30080AFF300805F
:1007E00088B00390029101920093029B0593009BB5
:1007F000002B02D1029B049301E0009B0493039B16
:100800000B330693059B019AB3FBF2F2019901FBAE
:1008100002F29B1A0793079B30330793079B392BF0
:1008200002DD079B07330793069B013B0693079B5B
:10083000DAB2069B1A70059A019BB2FBF3F305939B
:10084000049A019BB2FBF3F30493049B002BD9D1D0
:10085000039B0B331A46069BD31A0793039B5A1C20
:100860000392069A511C069112781A70079B013B5D
:100870000793079B002BF1D1039B184608B07047E4
:1008800000B585B003900291019203980299019AF4
:100890000023FFF7A5FF0346184605B05DF804FBEB
:1008A00000B591B003900291019200230993029B3D
:1008B0005A1C02921B788DF837309DF83730002B88
:1008C00001D1099B10E29DF83730252B0BD0039BFB
:1008D0001B689B689DF83720039811469847099B31
:1008E00001330993E3E704AB0F9304AB0E930023AA
:1008F0008DF82230029B1B782D2B05D1029B0133F2
:10090000029301238DF8223020238DF83630029B8C
:100910001B78302B05D1029B0133029330238DF8D5
:10092000363000230A93029B5A1C02921B788DF8E2
:1009300037309DF837302F2B09D99DF83730392BB8
:1009400005D89DF83730303B8DF8373009E09DF8F9
:1009500037302A2B10D1019B1A1D01921B688DF88C
:1009600037300A9A13469B0013445B001A469DF8E1
:10097000373013440A93D6E700230B939DF83730A2
:100980002E2B29D1029B5A1C02921B788DF83730EE
:100990009DF837302F2B09D99DF83730392B05D8E2
:1009A0009DF83730303B8DF8373009E09DF837300F
:1009B0002A2B11D1019B1A1D01921B688DF837302B
:1009C0000B9A13469B0013445B000B939DF8373042
:1009D0000B9A13440B93D5E79DF837306C2B03D05B
:1009E0009DF837304C2B0DD101238DF82330029B1D
:1009F0001B78002B1AD0029B5A1C02921B788DF890
:100A0000373014E09DF83730402B05D99DF837304A
:100A10005A2B01D8012300E000238DF823309DF8E4
:100A2000233003F001038DF8233000E000BF9DF870
:100A30003730443B342B00F2E58001A252F823F01A
:100A40007D0B0008050C0008050C0008050C0008CB
:100A5000050C00087D0B0008050C0008050C0008BB
:100A6000050C0008050C0008050C0008CF0B000859
:100A7000050C0008050C0008050C0008050C000812
:100A8000050C0008C70B0008050C0008050C000841
:100A9000BF0B0008050C0008050C0008050C000839
:100AA000050C0008050C0008050C0008050C0008E2
:100AB000050C0008050C0008050C0008150B0008C3
:100AC0007D0B0008050C0008050C0008050C00084B
:100AD000050C00087D0B0008050C0008050C00083B
:100AE000050C0008050C0008050C0008CF0B0008D9
:100AF000050C0008050C0008050C00082F0B000869
:100B0000050C0008C70B0008050C0008050C0008C0
:100B1000BF0B000820238DF836300F9B5A1C0F9214
:100B2000019A111D01911268D2B21A7070E020234F
:100B30008DF83630019B1A1D01921B680E930E9B97
:100B4000002B04D140F6F803C0F601030E930B9B73
:100B5000002B02D147F6FF730B930E9B0F9302E01D
:100B60000F9B01330F930F9B1B78002B50D00B9BD7
:100B7000013B0B930B9B002BF2DA49E09DF82330ED
:100B8000002B05D0019B1A1D01921B68079304E0FE
:100B9000019B1A1D01921B680793079B002B07DA24
:100BA0000F9B5A1C0F922D221A70079B5B420793D2
:100BB0000F9807990A22FFF763FE0F9028E0102391
:100BC0008DF8373006E00A238DF8373002E008232D
:100BD0008DF837309DF82330002B05D0019B1A1D6E
:100BE00001921B68079304E0019B1A1D01921B6888
:100BF00007939DF837300F9807991A46FFF740FE84
:100C00000F9005E00F9B5A1C0F929DF837201A7029
:100C10000F9A0E9BD31A0C930A9A0C9BD31A0A9321
:100C20000A9B002B01DA00230A939DF8223083F0FF
:100C30000103DBB2002B02D00A9B5B420A930A9BA2
:100C4000002B37DA0E9B1B782D2B13D19DF83630F5
:100C5000302B0FD1039B1B689A680E9B591C0E9179
:100C60001B78039819469047099B013309930C9B05
:100C7000013B0C93039B1B689B689DF836200398EF
:100C800011469847099B013309930A9B01330A9344
:100C90000A9B002BEED10DE0039B1B689A680E9B0C
:100CA000591C0E911B78039819469047099B0133F4
:100CB000099300E000BF0C9B013B0C930C9B002BA5
:100CC000EADA0DE0039B1B689B689DF836200398C9
:100CD00011469847099B013309930A9B013B0A93EC
:100CE0000A9B002BEED1E2E5184611B05DF804FB3B
:100CF0000EB400B584B0019006AB0293019805993B
:100D0000029AFFF7CDFD0390039B184604B05DF8EF
:100D100004EB03B0704700BFAFF30080AFF3008077
:100D200082B020230193019B83F3118802B07047A6
:100D300082B000230193019B83F3118802B07047B6
:100D400008B5FFF7EDFF08BDAFF30080AFF30080FB
:100D500008B5FFF7EDFF08BDAFF30080AFF30080EB
:100D600008B5FFF7EDFF0DF01BF90EF0F9FC08BD1B
:100D700008B50EF015FD0DF01BF9FFF7E9FF08BDF2
:100D800008B5FFF7EDFF08BDAFF30080AFF30080BB
:100D900008B5FFF7EDFF08BDAFF30080AFF30080AB
:100DA00082B001908DF803108DF80220ADF800306C
:100DB0009DF80330022B08D0032B0BD0012B16D14A
:100DC00042F26043C0F6010312E042F2C043C0F6B3
:100DD00001030DE09DF80230032B08D89DF8023086
:100DE000DA0042F26053C0F60103134400E000232E
:100DF000184602B0704700BFAFF30080AFF3008029
:100E000000B583B001900B468DF803309DF8033098
:100E1000052B34D801A252F823F000BF7F0E000842
:100E20007F0E0008350E00086B0E00087F0E0008CC
:100E30007F0E0008FFF794FF0198012142F28052D3
:100E4000C0F6010207F0FCFC0198022142F2B05208
:100E5000C0F6010207F0F4FC41F65870C2F200003F
:100E600009F07EFBFFF784FF09E0FFF779FF41F609
:100E70005870C2F2000009F05BFBFFF779FF03B086
:100E80005DF804FBAFF30080AFF30080AFF30080A8
:100E900000B583B00190FFF773FF41F65870C2F2BE
:100EA000000009F0D5FBFFF773FF03B05DF804FB0A
:100EB00040F65053C2F200039B691846704700BFCA
:100EC00008B5FFF7F5FF03469B68184608BD00BF4D
:100ED00082B00190019B93F820300F2B14BF0023A8
:100EE0000123DBB2184602B0704700BFAFF30080A9
:100EF00082B0019040F65053C2F200039B69019A00
:100F00009A6102B0704700BFAFF30080AFF300807A
:100F100000B587B0039002910192029B002B07DD80
:100F2000039840F60011C0F60101FFF7E1FE21E051
:100F300004AB002019460AF0EBFB05900AF090FA8A
:100F40000346039840F61011C0F601011A46FFF758
:100F5000CFFE039840F63011C0F60101059AFFF765
:100F6000C7FE049B039840F64811C0F601011A46DB
:100F7000FFF7BEFE07B05DF804FB00BFAFF30080D3
:100F800030B58BB0079006910592069B002B07DDCC
:100F9000079840F66811C0F60101FFF7A9FE30E09E
:100FA000079840F67C11C0F60101FFF7A1FE0DF095
:100FB0008FF90990099A099BDB681C46099B986880
:100FC000099B93F82230013B1946099B93F8203086
:100FD0001D4640F60C13C2F2000353F82530009072
:100FE00001910293079840F6AC11C0F60101234627
:100FF000FFF77EFE09980DF08BF90990099B002BF5
:10100000D8D10BB030BD00BFAFF30080AFF300808C
:1010100000B589B0059004910392049B002B07DD75
:10102000059840F6C811C0F60101FFF761FE1DE00A
:10103000FFF746FF0346059A009200204FF4F47133
:101040001A4645F63143C0F600030DF071F80790DB
:10105000079B002B07D1059840F6D811C0F6010177
:10106000FFF746FE02E007980CF072FD09B05DF84C
:1010700004FB00BFAFF30080AFF30080AFF300804C
:1010800000B585B0039002910192029B002B18DD00
:10109000039840F6E811C0F60101FFF729FE21E0B0
:1010A00041F65873C2F200031B681B6841F6587082
:1010B000C2F2000040F64C11C2F200014FF480620F
:1010C0009847039B1B685B69039800219847034678
:1010D000B3F1FF3FE4D0039840F6F811C0F60101E8
:1010E000FFF706FE05B05DF804FB00BFAFF300801C
:1010F00000B585B0019040F60820C0F60100FFF76A
:10110000F7FE42F2F053C0F601031B681B78042B74
:1011100001D1FA2301E04FF4FA7303934FF44063D3
:10112000C4F202034FF480525A83039B42F21072BE
:1011300002FB03F303F2E73244F6D353C1F2620336
:10114000A3FB02139B0918460CF082FC4FF440638A
:10115000C4F202034FF480521A83039B42F21072CE
:1011600002FB03F303F2E73244F6D353C1F2620306
:10117000A3FB02139B0918460CF06AFCC1E700BFF1
:1011800000B585B0002303930AF082FC0EF0A0F8AE
:1011900041F65870C2F2000009F03AF941F6587071
:1011A000C2F2000042F2F051C0F6010109F070F9FC
:1011B00042F2F053C0F601031B689A6E42F2F053FC
:1011C000C0F601031B689B6E9B6B23F400239363A3
:1011D00043F698200CF03CFC42F2F053C0F60103B9
:1011E0001B68184642F2E051C0F6010109F008FE02
:1011F00042F2F053C0F601031B689A6E42F2F053BC
:10120000C0F601031B689B6E9B6B43F40023936342
:10121000FFF72EFA0023009342F21040C2F20000C2
:101220004FF4B471402241F2F103C0F600030FF015
:1012300097FA039B002B14D141F65873C2F20003B6
:10124000D3F884341B681B78042B0AD142F2306037
:10125000C0F6010040F6E8014022FFF729FA0390AA
:101260000AE00398FFF734FE0346002B04D00398EE
:101270000CF006FF0023039342F210700CF0E8FB21
:10128000D7E700BFAFF30080AFF30080AFF300807B
:1012900000B585B0019002F0FBFB019802F060FC04
:1012A00003468DF80F3002F0FBFB9DF80F30184617
:1012B00005B05DF804FB00BFAFF30080AFF3008022
:1012C00000B583B00190019802F04AFC0346002B60
:1012D00002D001980EF064FC03B05DF804FB00BF7F
:1012E00000B585B003900291019200930398FFF737
:1012F000E7FF03980299019A009B0EF0A9FB05B045
:101300005DF804FBAFF30080AFF30080AFF3008023
:1013100000B585B0039002910192009302F0B8FBF2
:1013200003980299019A009BFFF7DAFF02F0B8FBDD
:1013300005B05DF804FB00BFAFF30080AFF30080A1
:1013400000B585B0019002F0D3FB02F0D9FB02F0AA
:10135000CFFB0EF0DDF8039003980EF0F9F802F0E1
:10136000CFFB05B05DF804FBAFF30080AFF3008066
:1013700000B587B00EF0CCF8059005980EF0E8F8AF
:1013800002F086FB0EF0C4F8059005980EF0E0F828
:1013900002F086FB02F0BCFB02F0BAFB02F080FB1D
:1013A00002F076FB02F0C4FB02F0C2FB6B4618466B
:1013B00002F0CEFB6B461846012141F24132C0F6E5
:1013C00000020023FFF7A4FF0A200CF041FB6B464C
:1013D0001846FFF75DFF0346002B0CBF00230123D7
:1013E000DBB283F00103DBB203F00103DBB20120C7
:1013F000194607F0B5F80346002B07B05DF804FB6B
:1014000008B502F035FB02F02BFB02F031FB02F0D5
:1014100037FB08BDAFF30080AFF30080AFF300806F
:1014200000B583B002F034FB01200DF0C1FF03468C
:101430008DF8073002F034FB9DF80730002B0CBF0D
:1014400000230123DBB283F00103DBB203F00103CD
:10145000DBB20120194607F083F80346002B56D172
:1014600002F016FB02200DF0A3FF03468DF80730B3
:1014700002F016FB9DF80730002B0CBF0023012360
:10148000DBB283F00103DBB203F00103DBB2022025
:10149000194607F065F80346002B38D102F0F8FA38
:1014A00004200DF085FF03468DF8073002F0F8FAAE
:1014B0009DF80730002B0CBF00230123DBB283F023
:1014C0000103DBB203F00103DBB20320194607F08E
:1014D00047F80346002B1AD102F0DAFA08200DF083
:1014E00067FF03468DF8073002F0DAFA9DF80730FF
:1014F000002B0CBF00230123DBB283F00103DBB21E
:1015000003F00103DBB20420194607F029F803B009
:101510005DF804FBAFF30080AFF30080AFF3008011
:1015200082B020230193019B83F3118802B070479E
:1015300082B000230193019B83F3118802B07047AE
:1015400008B5FFF7EDFF0CF01BFD0EF0C9F808BD64
:1015500008B50EF0E5F80CF01BFD40F65053C2F252
:1015600000031A6840F65053C2F200039A4213D0A7
:1015700040F65053C2F200039B699A6840F65053FC
:10158000C2F200031B689B689A4205D242F22040D7
:10159000C0F601000DF0FCFEFFF7CAFF08BD00BF5A
:1015A00040F65053C2F200039B691846704700BFD3
:1015B00008B5FFF7F5FF03469B68184608BD00BF56
:1015C00008B5FFF7EDFF034693F8213003F004035D
:1015D000002B0CBF00230123DBB2184608BD00BF5F
:1015E00082B00190019B5B6B184602B0704700BF50
:1015F00000B583B0019001984FF0FF3109F0C0FCB5
:101600000346184603B05DF804FB00BFAFF300804B
:1016100000B583B00190019B18460CF049FA03B065
:101620005DF804FBAFF30080AFF30080AFF3008000
:1016300000B585B001900BF0F3FD03900398FFF720
:10164000CFFF0290039802990BF01AFE029B002B29
:10165000F1D105B05DF804FBAFF30080AFF300807B
:1016600000B585B001900023039307F039F84FF4DB
:101670007A7007F055F8019801210BF099FD039B52
:101680000133039341F67863C2F200031B7883F0C1
:101690000103DBB2002BEED1019800210BF088FD95
:1016A000039B184605B05DF804FB00BFAFF3008054
:1016B00010B584B041F6B073C0F601031C68FFF7A3
:1016C00077FF0346013B0022009220464FF4B4719D
:1016D0001A4641F23163C0F600030FF041F80246AA
:1016E00041F66063C2F200031A6041F66063C2F221
:1016F00000031B681846FFF7B3FF039006F0C0FF16
:1017000040F61020C0F6010006F07AFE039806F0BD
:101710001FFE40F62020C0F6010006F071FE039B7C
:101720005B00184606F014FE40F62C20C0F60100BF
:1017300006F086FE04B010BDAFF30080AFF300806A
:1017400010B584B041F6B073C0F601031C68FFF712
:101750002FFF034601330022009220464FF4B4715C
:101760001A4641F23163C0F600030EF0F9FF02465B
:1017700041F66063C2F200031A6041F66063C2F290
:1017800000031B681846FFF76BFF039006F078FF15
:1017900040F61020C0F6010006F032FE039806F075
:1017A000D7FD40F62020C0F6010006F029FE039B7D
:1017B0005B00184606F0CCFD40F62C20C0F6010078
:1017C00006F03EFE04B010BDAFF30080AFF3008022
:1017D00010B584B041F6B073C0F601031C68FFF782
:1017E000E7FE034601330022009220464FF4B47115
:1017F0001A4641F23163C0F600030EF0B1FF024613
:1018000041F66063C2F200031A6041F6B073C0F69D
:1018100001035C68FFF7CCFE0346023B0022009206
:1018200020464FF4B4711A4641F21163C0F600032A
:101830000EF096FF024641F66063C2F200035A6062
:1018400041F6B073C0F601039C68FFF7B1FE034692
:10185000033B0022009220464FF4B4711A4641F235
:101860001163C0F600030EF07BFF024641F6606391
:10187000C2F200039A6041F6B073C0F60103DC685F
:10188000FFF796FE0346043B0022009220464FF4E9
:10189000B4711A4641F21163C0F600030EF060FF06
:1018A000024641F66063C2F20003DA6041F6B073AB
:1018B000C0F601031C69FFF77BFE0346053B0022CF
:1018C000009220464FF4B4711A4641F21163C0F6FB
:1018D00000030EF045FF024641F66063C2F20003CA
:1018E0001A6141F66063C2F200031B681846FFF7F5
:1018F000B7FE039006F0C4FE40F61020C0F60100CB
:1019000006F07EFD039806F023FD40F62020C0F689
:10191000010006F075FD039B5B00184606F018FDFC
:1019200040F62C20C0F6010006F08AFD04B010BD80
:1019300000B585B00190FFF733FE0390FFF700FE7E
:1019400003200EF0D5FA039B5B6A0293029B002BE7
:10195000F6D0FFF7FDFD05B05DF804FBAFF30080A6
:1019600010B584B041F6B073C0F601031C68FFF7F0
:101970001FFE034601330022009220464FF4B4714B
:101980001A4641F63113C0F600030EF0E9FE024696
:1019900041F66063C2F200031A6041F66063C2F26E
:1019A00000031B6802930023039306F099FE4FF493
:1019B0007A7006F0B5FEFFF7C3FD029800210EF025
:1019C00067FB029800210EF063FB029800210EF0E5
:1019D0005FFB029800210EF05BFBFFF7B9FD039B54
:1019E0000433039341F67863C2F200031B7883F05B
:1019F0000103DBB2002BDED1FFF7A2FD02984FF00E
:101A0000FF310EF045FBFFF7A3FD06F039FE40F66F
:101A10001020C0F6010006F0F3FC039B5B001846A3
:101A200006F096FC40F62C20C0F6010006F008FDFA
:101A300004B010BDAFF30080AFF30080AFF30080BF
:101A400000B587B00023059341F6B073C0F60103DB
:101A50001B680493FFF7ACFD0346013B039306F0BC
:101A60003FFE4FF47A7006F05BFE0023009304986B
:101A70004FF4B471039A41F21163C0F600030EF003
:101A80006FFE034618460CF063F8059B013305937F
:101A900041F67863C2F200031B7883F00103DBB2E6
:101AA000002BE2D140F61020C0F6010006F0A8FCA1
:101AB000059806F04DFC40F63820C0F6010006F00F
:101AC000BFFC07B05DF804FBAFF30080AFF300800C
:101AD00000B587B00023059341F6B073C0F601034B
:101AE0001B680493FFF764FD03460133039306F07C
:101AF000F7FD4FF47A7006F013FE0023009304986C
:101B00004FF4B471039A41F21163C0F600030EF072
:101B100027FE059B0133059341F67863C2F200036B
:101B20001B7883F00103DBB2002BE6D140F61020D6
:101B3000C0F6010006F064FC059806F009FC40F6CA
:101B40003820C0F6010006F07BFC07B05DF804FB0E
:101B500000B583B0019005E041F6DC60C2F2000000
:101B60000CF046FDFFF72CFD034683F00103DBB2CA
:101B7000002BF1D103B05DF804FB00BFAFF3008090
:101B800008B541F6DC60C2F2000000210CF0A8FCB0
:101B900008BD00BFAFF30080AFF30080AFF300805B
:101BA00010B584B041F6B073C0F601031C68FFF7AE
:101BB000FFFC034605330022009220464FF4B47127
:101BC0001A4641F65133C0F600030EF0C9FD024635
:101BD00041F66063C2F200031A6041F6B073C0F6CA
:101BE00001035C68FFF7E4FC034604330022009223
:101BF00020464FF4B4711A4641F65133C0F6000343
:101C00000EF0AEFD024641F66063C2F200035A6078
:101C100041F6B073C0F601039C68FFF7C9FC0346A8
:101C200003330022009220464FF4B4711A4641F665
:101C30005133C0F600030EF093FD024641F6606397
:101C4000C2F200039A6041F6B073C0F60103DC688B
:101C5000FFF7AEFC034602330022009220464FF409
:101C6000B4711A4641F65133C0F600030EF078FD08
:101C7000024641F66063C2F20003DA6041F6B073D7
:101C8000C0F601031C69FFF793FC034601330022F1
:101C9000009220464FF4B4711A4641F65133C0F613
:101CA00000030EF05DFD024641F66063C2F20003E0
:101CB0001A610023039306F013FD4FF47A7006F0C7
:101CC0002FFD41F6DC60C2F2000000210CF028FC80
:101CD000039B0133039341F67863C2F200031B7840
:101CE00083F00103DBB2002BEBD106F0A1FC41F63F
:101CF000DC60C2F2000000210CF012FC06F0C0FC17
:101D000040F61020C0F6010006F07AFB039806F0BA
:101D10001FFB40F64420C0F6010006F071FB039A59
:101D200013465B0013445B00184606F011FB40F6B7
:101D30002C20C0F6010006F083FB04B010BD00BFEC
:101D400000B583B001900BF0ABFE0BF0A9FE0BF0D9
:101D5000A7FE0BF0A5FE019B1B681A1D019B1A60D4
:101D6000FFF72EFC034683F00103DBB2002BEAD120
:101D700003B05DF804FB00BFAFF30080AFF3008059
:101D800010B584B00023039306F0AAFC41F6B073AB
:101D9000C0F601031C68FFF70BFC0346013B03AAD6
:101DA000009220464FF4B4711A4641F64153C0F6F2
:101DB00000030EF0D5FC024641F66063C2F2000358
:101DC0001A6041F6B073C0F601035C68FFF7F0FBE0
:101DD0000346013B03AA009220464FF4B4711A4611
:101DE00041F64153C0F600030EF0BAFC024641F63C
:101DF0006063C2F200035A6041F6B073C0F601039B
:101E00009C68FFF7D5FB0346013B03AA00922046DE
:101E10004FF4B4711A4641F64153C0F600030EF078
:101E20009FFC024641F66063C2F200039A6041F6ED
:101E3000B073C0F60103DC68FFF7BAFB0346013B51
:101E400003AA009220464FF4B4711A4641F641535A
:101E5000C0F600030EF084FC024641F66063C2F255
:101E60000003DA6041F6B073C0F601031C69FFF7A6
:101E70009FFB0346013B03AA009220464FF4B47136
:101E80001A4641F64153C0F600030EF069FC0246C3
:101E900041F66063C2F200031A6142F210700BF067
:101EA000D7FD06F0C5FB06F0EBFB40F61020C0F6B0
:101EB000010006F0A5FA039B184606F049FA40F621
:101EC0002C20C0F6010006F0BBFA04B010BD00BF24
:101ED00000B585B00023009341F6F860C2F200001F
:101EE00041F61C71C2F200011022002308F0C8FF65
:101EF0000023039306F0F4FB4FF47A7006F010FC15
:101F0000FFF71EFB41F6F860C2F20000002108F066
:101F1000FFFF41F6F860C2F20000012108F0F8FF6F
:101F200041F6F860C2F20000022108F0F1FF41F62C
:101F3000F860C2F20000032108F0EAFFFFF708FB97
:101F400041F6F860C2F20000FFF752FB41F6F8607C
:101F5000C2F20000FFF74CFB41F6F860C2F200004D
:101F6000FFF746FB41F6F860C2F20000FFF740FBC6
:101F7000039B0133039341F67863C2F200031B789D
:101F800083F00103DBB2002BBAD140F61020C0F67B
:101F9000010006F035FA039B9B00184606F0D8F9BD
:101FA00040F65820C0F6010006F04AFA05B05DF888
:101FB00004FB00BFAFF30080AFF30080AFF30080FD
:101FC00082B0019002B07047AFF30080AFF30080A1
:101FD00000B583B00023019306F082FB4FF47A70C2
:101FE00006F09EFBFFF7ACFA41F62C70C2F200003F
:101FF000012141F6C172C0F6000200230DF028FD58
:1020000041F64070C2F2000042F2107141F6C17216
:10201000C0F6000200230DF01BFD41F62C70C2F249
:1020200000000DF0BDFD41F64070C2F200000DF061
:10203000B7FDFFF78DFA019B0133019341F67863F9
:10204000C2F200031B7883F00103DBB2002BC9D17D
:1020500040F61020C0F6010006F0D2F9019B5B00AB
:10206000184606F075F940F66420C0F6010006F047
:10207000E7F903B05DF804FBAFF30080AFF3008035
:1020800008B541F6DC60C2F2000001210CF028FA2C
:1020900008BD00BFAFF30080AFF30080AFF3008056
:1020A00000B583B00023019306F01AFB4FF47A7059
:1020B00006F036FB41F6DC60C2F200000CF098FA44
:1020C00041F6DC60C2F200000CF082FB41F6DC60FD
:1020D000C2F200000CF08CFA41F6DC60C2F20000A3
:1020E0000CF076FB41F6DC60C2F200000CF080FAE6
:1020F00041F6DC60C2F200000CF06AFB41F6DC60E5
:10210000C2F200000CF074FA41F6DC60C2F200008A
:102110000CF05EFB019B0133019341F67863C2F240
:1021200000031B7883F00103DBB2002BC2D140F621
:102130001020C0F6010006F063F9019B9B001846D1
:1021400006F006F940F67020C0F6010006F078F9B6
:1021500003B05DF804FB00BFAFF30080AFF3008075
:1021600008B541F6E860C2F200000CF071FD08BD50
:1021700000B583B00023019306F0B2FA4FF47A70F1
:1021800006F0CEFA41F6E860C2F200000CF078FDED
:1021900041F6E860C2F200000AF012F941F6E86088
:1021A000C2F200000CF06CFD41F6E860C2F20000E3
:1021B0000AF006F941F6E860C2F200000CF060FD9A
:1021C00041F6E860C2F200000AF0FAF841F6E86071
:1021D000C2F200000CF054FD41F6E860C2F20000CB
:1021E0000AF0EEF8019B0133019341F67863C2F2E5
:1021F00000031B7883F00103DBB2002BC2D140F651
:102200001020C0F6010006F0FBF8019B9B00184669
:1022100006F09EF840F68020C0F6010006F010F9A6
:1022200003B05DF804FB00BFAFF30080AFF30080A4
:1022300008B540F69020C0F6010006F0E1F84FF432
:10224000BB6006F085F840F6A020C0F6010006F05D
:10225000F7F840F6A820C0F6010006F0D1F860209B
:1022600006F076F840F6A020C0F6010006F0E8F887
:1022700040F6B820C0F6010006F0C2F8142006F0BF
:1022800067F840F6A020C0F6010006F0D9F840F645
:10229000C820C0F6010006F0B3F80C2006F058F88C
:1022A00040F6A020C0F6010006F0CAF840F6D8209B
:1022B000C0F6010006F0A4F8042006F049F840F644
:1022C000A020C0F6010006F0BBF840F6E820C0F6FA
:1022D000010006F095F8142006F03AF840F6A02028
:1022E000C0F6010006F0ACF840F6F820C0F6010098
:1022F00006F086F8102006F02BF840F6A020C0F675
:10230000010006F09DF840F60830C0F6010006F026
:1023100077F8082006F01CF840F6A020C0F601006F
:1023200006F08EF840F61830C0F6010006F068F8A6
:10233000242006F00DF840F6A020C0F6010006F0BB
:102340007FF840F62830C0F6010006F059F8282042
:1023500005F0FEFF40F6A020C0F6010006F070F880
:1023600008BD00BFAFF30080AFF30080AFF3008083
:1023700082B020230193019B83F3118802B0704740
:1023800082B000230193019B83F3118802B0704750
:102390004FF080435B6A1846704700BFAFF3008080
:1023A00008B5FFF7F5FF0346184608BDAFF30080F8
:1023B00008B5FFF7DDFF0BF0E3FD0DF091F908BD67
:1023C00008B50DF0ADF90BF0E3FD40F65053C2F245
:1023D00000031A6840F65053C2F200039A4213D029
:1023E00040F65053C2F200039B699A6840F650537E
:1023F000C2F200031B689B689A4205D242F2304049
:10240000C0F601000CF0C4FFFFF7BAFF08BD00BF23
:1024100008B5FFF7C5FF0346184608BDAFF30080B7
:1024200000B583B0FFF7C4FFFFF7F2FF0190FFF79D
:10243000C7FF019B184603B05DF804FBAFF30080B3
:1024400082B0019040F65053C2F200039B69019A9A
:102450009A6102B0704700BFAFF30080AFF3008015
:1024600082B00190019B019A1A6002B0704700BFD0
:1024700000B583B00190019800210AF0C9FB03B0B8
:102480005DF804FBAFF30080AFF30080AFF3008092
:1024900000B587B0039002910192039B002B02D0FC
:1024A000019B039A1A60019B1B680593059B002BF7
:1024B00001D1002320E0059802990EF0F9F90346B6
:1024C000059A13440593059802990EF0C9F902463E
:1024D000019B1A60019B1B68002B06D0019B1B68A7
:1024E000591C019A116000221A70059B1B78002B61
:1024F00001D0059B00E00023184607B05DF804FBFF
:1025000000B583B001900091019840F63831C0F6D3
:102510000101009AFEF7ECFB03B05DF804FB00BF7D
:1025200000B583B0019000910CE0009B1B680198FE
:1025300040F64431C0F601011A46FEF7D9FB009B74
:1025400008330093009B1B68002BEED103B05DF8AD
:1025500004FB00BFAFF30080AFF30080AFF3008057
:1025600000B587B0059004910392049B002B07DD12
:10257000059840F64831C0F60101FFF7C1FF60E061
:10258000059840F65031C0F6010140F66432C0F6BD
:102590000102FEF7ADFB059840F66C31C0F6010173
:1025A00040F68032C0F60102FEF7A2FB059840F625
:1025B0008C31C0F6010140F6A032C0F60102FEF7F0
:1025C00097FB059840F6AC31C0F6010140F6C032E9
:1025D000C0F60102FEF78CFB059840F6CC31C0F640
:1025E000010140F6E032C0F60102FEF781FB0598DA
:1025F00040F6F831C0F6010140F60C42C0F6010287
:10260000FEF776FB059840F63841C0F6010140F62A
:102610004C42C0F60102FEF76BFB40F69C43C0F64D
:1026200001030093059840F67441C0F6010140F69D
:102630008C42C0F6010240F69843C0F60103FEF753
:1026400057FB07B05DF804FBAFF30080AFF30080E9
:1026500000B585B0039002910192029B002B07DD2B
:10266000039840F6A841C0F60101FFF749FF0AE0D0
:10267000FFF7D6FE0346039840F6B041C0F60101CD
:102680001A46FEF735FB05B05DF804FBAFF300809A
:1026900000B585B0039002910192009313E0039B73
:1026A0001B6818460199FDF7D3FE0346002B07D19E
:1026B000039B5B6802980099069A9847002307E0FD
:1026C000039B08330393039B1B68002BE7D1012373
:1026D000184605B05DF804FBAFF30080AFF300804F
:1026E00000B5A1B00390039B1B681D93039B5B681F
:1026F0001C9340F6B840C0F60100FFF7A1FE1D98FC
:1027000040F6C041C0F60101FEF7F2FA1D9840F60E
:10271000D841C0F60101FEF7EBFA0AAB1D98194645
:102720004022FDF7DDFF0346002B07D01D9840F641
:10273000E041C0F60101FEF7DBFAB1E00AAA1AABEC
:10274000104640F6EC41C0F601011A46FFF7A0FE24
:102750001B901B9B1E9300231F9315E01F9B032BB5
:1027600009DD1D9840F6F041C0F60101FEF7C0FA00
:1027700000231E9315E01F9B5A1C1F929B0020AA4A
:1027800013441B9A43F86C2C1AAB002040F6EC4122
:10279000C0F601011A46FFF77BFE1B901B9B002B26
:1027A000DCD11F9B9B0020AA1344002243F86C2C11
:1027B0001E9B002BAAD01E9840F60851C0F60101BE
:1027C000FDF746FE0346002B0AD11F9B002B67DD59
:1027D0001D9840F60851C0F60101FFF791FE95E7FC
:1027E0001E9840F61051C0F60101FDF731FE034678
:1027F000002B27D11F9B002B07DD1D9840F61051A1
:10280000C0F60101FFF77CFE80E71D9840F61851E5
:10281000C0F60101FEF76CFA1D9840F6F401C2F211
:102820000001FFF77DFE1C9B002B03D01D981C9917
:10283000FFF776FE1D9840F63051C0F60101FEF715
:1028400057FA63E705AB009340F6F400C2F20000CC
:102850001D991E9A1F9BFFF71BFF0346002B3FF499
:1028600055AF1C9B002B0BD005AB00931C981D99FA
:102870001E9A1F9BFFF70CFF0346002B3FF446AF49
:102880001D9840F63451C0F601011E9AFEF730FA49
:102890001D9840F63851C0F60101FEF729FA35E7D8
:1028A0000020FDF7EDFE21B05DF804FBAFF30080E2
:1028B00008B540F6A000C2F200004FF4B471002247
:1028C00008F0B6FF08BD00BFAFF30080AFF3008093
:1028D00000B583B041F6B073C0F601031B6840F643
:1028E000A000C2F200001946052208F0C1FF002333
:1028F000019315E040F6A000C2F2000009F010F8C4
:102900000346002B0CBF00230123DBB20120194634
:1029100005F026FE0346002B79D1019B013301937C
:10292000019B042BE6DD40F6A000C2F2000008F097
:10293000F7FF0346002B14BF00230123DBB2022064
:10294000194605F00DFE0346002B60D100230193CC
:1029500010E041F6B073C0F60103019A53F822303B
:1029600040F6A000C2F20000194609F009F8019BE8
:1029700001330193019B042BEBDD0023019315E050
:1029800040F6A000C2F2000008F0CAFF0346002B88
:102990000CBF00230123DBB20320194605F0E0FD44
:1029A0000346002B33D1019B01330193019B042B80
:1029B000E6DD40F6A000C2F2000008F0B1FF0346D9
:1029C000002B14BF00230123DBB20420194605F0BD
:1029D000C7FD0346002B1AD140F6A000C2F200004A
:1029E000102144F2E162C0F6000208F021FF40F637
:1029F000A000C2F2000008F093FF0346002B14BFB2
:102A000000230123DBB20520194605F0A9FD03B020
:102A10005DF804FBAFF30080AFF30080AFF30080FC
:102A200040F65053C2F200039B691846704700BF3E
:102A300008B5FFF7F5FF03469B68184608BD00BFC1
:102A400000B583B00190019B1B78184605F050FD3E
:102A500003B05DF804FB00BFAFF30080AFF300806C
:102A600008B541F6B060C2F2000041F25871C2F2FE
:102A700000014FF4E16208F023FD08BDAFF30080D0
:102A800000B587B0FFF7D4FF059002AB41F6B06008
:102A9000C2F20000194608F03BFE059B5A1E40F6A4
:102AA0004053C0F60103009341F6B060C2F200004B
:102AB0004FF4B47142F64123C0F600030BF038FB2B
:102AC000024641F66063C2F200031A60059B9A1E3B
:102AD00040F64453C0F60103009341F6B060C2F2E1
:102AE00000004FF4B47142F64123C0F600030BF02E
:102AF0001FFB024641F66063C2F200035A6003AB5B
:102B000041F6B060C2F20000194608F001FE039BD6
:102B100041F6B060C2F20000194608F001FD0490D1
:102B2000059BDA1E40F64853C0F60103009341F6B8
:102B3000B060C2F200004FF4B47142F64123C0F617
:102B400000030BF0F5FA024641F66063C2F200039F
:102B50009A60049808F05CFD41F66063C2F20003DD
:102B60001B68002B1DD041F66063C2F200035B6856
:102B7000002B16D041F66063C2F200039B68002B65
:102B80000FD141F66063C2F20003DB68002B08D16D
:102B900041F66063C2F200031B69002B01D10123DF
:102BA00000E0002303F00103DBB20120194605F029
:102BB000D7FC0346002B2DD105F062FD022040F624
:102BC0004C51C0F6010105F0E3FC0346002B21D176
:102BD00003AB41F6B060C2F20000194608F098FD60
:102BE0000346012B14BF00230123DBB20320194647
:102BF00005F0B6FC0346002B0CD1039A029B9A42C7
:102C000014BF00230123DBB20420194605F0A8FC01
:102C10000346002B07B05DF804FB00BFAFF3008054
:102C200008B541F6D060C2F200004FF4B471002242
:102C300008F0FEFD08BD00BFAFF30080AFF30080D9
:102C400000B583B0FFF7F4FE00900023019310E07D
:102C500041F6B073C0F60103019A53F8223041F6F1
:102C6000D060C2F20000194608F08AFE019B0133D1
:102C70000193019B032BEBDD009B013B41F6D060F0
:102C8000C2F20000194642F64122C0F6000240F6A8
:102C90004053C0F601030BF08BFA024641F6606325
:102CA000C2F200031A60009B023B41F6D060C2F200
:102CB0000000194642F64122C0F6000240F6445395
:102CC000C0F601030BF074FA024641F66063C2F2EB
:102CD00000035A60009B033B41F6D060C2F2000043
:102CE000194642F64122C0F6000240F64853C0F6AB
:102CF00001030BF05DFA024641F66063C2F2000385
:102D00009A60009B043B41F6D060C2F20000194675
:102D100042F64122C0F6000240F65053C0F60103CD
:102D20000BF046FA024641F66063C2F20003DA6035
:102D3000009B053B41F6D060C2F20000194642F606
:102D40004122C0F6000240F65453C0F601030BF0D6
:102D50002FFA024641F66063C2F200031A6141F69F
:102D60006063C2F200031B68002B1DD041F6606354
:102D7000C2F200035B68002B16D041F66063C2F21A
:102D800000039B68002B0FD041F66063C2F2000382
:102D9000DB68002B08D041F66063C2F200031B69B8
:102DA000002B01D1012300E0002303F00103DBB27B
:102DB0000120194605F0D4FB0346002B37D105F05E
:102DC0005FFC022040F65851C0F6010105F0E0FB1F
:102DD0000346002B2BD10023019315E041F6D06070
:102DE000C2F2000008F09CFD0346002B0CBF00233C
:102DF0000123DBB20320194605F0B2FB0346002B8A
:102E000015D1019B01330193019B032BE6DD41F6B4
:102E1000D060C2F2000008F083FD0346002B14BF0F
:102E200000230123DBB20420194605F099FB03B00F
:102E30005DF804FBAFF30080AFF30080AFF30080D8
:102E400000B585B0019000238DF80B300BF040FAEF
:102E500003909DF80B200399019B994214BF002316
:102E60000123DBB21343002B0CBF002301238DF899
:102E70000B3003980BF04CFA0390039B002BE8D126
:102E80009DF80B30184605B05DF804FBAFF30080E9
:102E900008B541F6B060C2F2000041F25871C2F2CA
:102EA00000014FF4E16208F00BFB08BDAFF30080B6
:102EB00000B585B0FFF7BCFD0390039B5A1E40F69A
:102EC0004053C0F60103009341F6B060C2F2000027
:102ED0004FF4B47142F64123C0F600030BF028F919
:102EE0000290029B93F82230012B14BF0023012390
:102EF000DBB20120194605F033FB0346002B40F0FE
:102F0000A38002980BF09CF8029B93F82230022BCE
:102F100014BF00230123DBB20220194605F020FB79
:102F20000346002B40F0908002980BF0A9F8029B1A
:102F300093F82230012B14BF00230123DBB20320BE
:102F4000194605F00DFB0346002B7DD10298FFF7D3
:102F500077FF03460420194605F002FB0346002BC9
:102F600072D10298FFF76CFF03460520194605F061
:102F7000F7FA0346002B67D102980BF081F8029B09
:102F800093F82230002B14BF00230123DBB206206C
:102F9000194605F0E5FA0346002B55D1029B93F83C
:102FA0002030002B14BF00230123DBB20720194679
:102FB00005F0D6FA0346002B46D10298FFF740FFF2
:102FC00003460820194605F0CBFA0346002B3BD1F7
:102FD0000298FFF735FF03460920194605F0C0FAAD
:102FE0000346002B30D14FF4FA700AF031FD029BFA
:102FF00093F820300F2B14BF00230123DBB20A20EB
:10300000194605F0ADFA0346002B1DD10298FFF7D3
:1030100017FF03460B20194605F0A2FA0346002BC2
:1030200012D10298FFF70CFF0346002B0CBF0023C0
:103030000123DBB283F00103DBB203F00103DBB257
:103040000C20194605F08CFA05B05DF804FB00BFB2
:1030500082B020230193019B83F3118802B0704753
:1030600082B000230193019B83F3118802B0704763
:1030700008B5FFF7EDFF0AF083FF0CF031FB08BD48
:1030800008B50CF04DFB0AF083FF40F65053C2F236
:1030900000031A6840F65053C2F200039A4213D05C
:1030A00040F65053C2F200039B699A6840F65053B1
:1030B000C2F200031B689B689A4205D242F2B0201C
:1030C000C0F601000CF064F9FFF7CAFF08BD00BFAD
:1030D00040F65053C2F200039B691846704700BF88
:1030E00008B5FFF7F5FF03469B68184608BD00BF0B
:1030F00000B583B001900CF0C3FB019B9B681846A0
:1031000003B05DF804FB00BFAFF30080AFF30080B5
:1031100000B583B001900CF0B3FB019B9B68002BC2
:1031200014BF00230123DBB2184603B05DF804FB93
:1031300000B583B001900CF0A3FB019B5A69019B81
:103140009B699A4205D1019B9B68002B01D001230A
:1031500000E0002303F00103DBB2184603B05DF882
:1031600004FB00BFAFF30080AFF30080AFF300803B
:1031700000B583B0019001984FF0FF3107F000FFD8
:103180000346184603B05DF804FB00BFAFF30080B0
:1031900000B583B001900CF073FB019B1B691A46CC
:1031A000019BDB68D31A1A46019B9B68D31A184609
:1031B00003B05DF804FB00BFAFF30080AFF3008005
:1031C00000B583B001900CF05BFB019B5A69019B39
:1031D0009B699A4205D1019B9B68002B01D001237A
:1031E00000E0002303F00103DBB2184603B05DF8F2
:1031F00004FB00BFAFF30080AFF30080AFF30080AB
:1032000000B583B001900CF03BFB019B9B68002B49
:1032100014BF00230123DBB2184603B05DF804FBA2
:1032200000B583B001900B468DF803309DF8033054
:10323000019819464FF0FF3207F092FF03461846F7
:1032400003B05DF804FB00BFAFF30080AFF3008074
:1032500082B0019002B07047AFF30080AFF30080FE
:1032600000B583B041F6B073C0F601031B680022BD
:10327000009240F6AC00C2F200001946042243F26C
:103280005123C0F6000307F0FBFD03B05DF804FB1B
:1032900000B583B0019040F6AC00C2F200004FF4DC
:1032A000FA6107F06DFE03B05DF804FBAFF3008038
:1032B00010B584B0FFF7DCFE40F6AC00C2F20000AF
:1032C000FFF726FF03460120194605F049F903469A
:1032D000002B02D0FFF7D4FEA3E1FFF7D1FEFFF7EA
:1032E000C7FE002303930DE0039BDBB24133DBB247
:1032F00040F6AC00C2F20000194607F009FE039B3D
:1033000001330393039B032BEED9FFF7B9FEFFF7BD
:10331000AFFE40F6AC00C2F20000FFF709FF034623
:103320000220194605F01CF90346002B02D0FFF7D6
:10333000A7FE76E1FFF7A4FEFFF79AFE40F6AC0089
:10334000C2F20000002107F0E3FD034613F1040F71
:1033500014BF00230123DBB20320194605F000F956
:103360000346002B02D0FFF78BFE5AE1FFF788FEE1
:10337000002303930DE040F6AC00C2F20000FFF71B
:10338000F7FE0346DBB2184605F0B2F8039B0133A3
:103390000393039B032BEED9FFF76AFE40F6AC00C4
:1033A000C2F20000FFF7B4FE03460420194605F000
:1033B000D7F80346002B02D0FFF762FE31E1FFF79A
:1033C0005FFE052040F65851C0F6010105F0E0F817
:1033D0000346002B40F02581FFF74AFE00230393AC
:1033E0000DE0039BDBB24133DBB240F6AC00C2F22E
:1033F0000000194607F08CFD039B01330393039BE8
:10340000032BEED9FFF73CFE41F6B073C0F6010383
:103410005B6840F6AC00C2F20000194608220023A7
:1034200007F0F6FD0290029B042B14BF002301233A
:10343000DBB20620194605F093F80346002B40F056
:10344000F080FFF715FE40F6AC00C2F20000FFF777
:103450005FFE03460720194605F082F80346002B5D
:1034600002D0FFF70DFEDCE0FFF70AFEFFF700FEDB
:10347000002303930DE0039BDBB24133DBB240F644
:10348000AC00C2F20000194607F042FD039B013375
:103490000393039B032BEED9FFF7F2FD41F6B073C4
:1034A000C0F601035B6840F6AC00C2F200001946AA
:1034B0000222002307F0ACFD0290029B022B14BFF6
:1034C00000230123DBB20820194605F049F8034622
:1034D000002B40F0A68041F6B073C0F601035B6894
:1034E00040F6AC00C2F2000019460222002307F0A9
:1034F0008FFD0290029B022B14BF00230123DBB23D
:103500000920194605F02CF80346002B40F089806D
:10351000FFF7AEFD40F6AC00C2F20000FFF7F8FD89
:1035200003460A20194605F01BF80346002B02D07B
:10353000FFF7A6FD75E0FFF7A3FDFFF799FD40F645
:10354000AC00C2F20000002107F0E2FC40F6AC0043
:10355000C2F2000007F0BCFCFFF792FDFFF788FD08
:1035600040F6AC00C2F20000FFF7C2FD0346002B9C
:1035700014BF00230123DBB20B20194604F0F0FF37
:103580000346002B02D0FFF77BFD4AE0FFF778FDF2
:1035900041F6B073C0F601031C68FFF7A1FD0346B6
:1035A00001330022009220464FF4B4711A4643F2D0
:1035B0009123C0F600030DF0D3F8024641F6606394
:1035C000C2F200031A60FFF753FD40F6AC00C2F2EE
:1035D0000000FFF78DFD0346002B14BF00230123DD
:1035E000DBB20C20194604F0BBFF0346002B02D0CF
:1035F000FFF746FD15E0FFF743FD05F041F840F603
:10360000AC00C2F200000A2107F0BAFC0346B3F195
:10361000FF3F14BF00230123DBB20D20194604F045
:103620009FFF04B010BD00BFAFF30080AFF3008078
:1036300000B583B041F6B073C0F601031B680022E9
:10364000009240F6D000C2F200001946042243F274
:103650005123C0F6000307F03BFD03B05DF804FB07
:1036600000B583B0019040F6D000C2F20000002106
:103670004FF4FA6207F074FD03B05DF804FB00BF7D
:1036800010B586B0FFF7F4FC40F6D000C2F200009F
:10369000FFF796FD03460120194604F061FF03463B
:1036A000002B02D0FFF7ECFC6DE1FFF7E9FC0023F3
:1036B00005930DE0059BDBB24133DBB240F6D00051
:1036C000C2F200001946FFF7ABFD059B01330593DD
:1036D000059B032BEED9FFF7CBFC40F6D000C2F2DE
:1036E0000000FFF78DFD03460220194604F038FF65
:1036F0000346002B02D0FFF7C3FC44E1FFF7C0FCF8
:103700000023059314E0FFF7B3FC40F6D000C2F2AB
:10371000000007F06DFD03468DF81330FFF7B0FC95
:103720009DF81330184604F0E3FE059B0133059322
:10373000059B032BE7D9FFF79BFC40F6D000C2F2B4
:103740000000FFF73DFD03460320194604F008FF83
:103750000346002B02D0FFF793FC14E1FFF790FC27
:10376000042040F65851C0F6010104F011FF034651
:10377000002B40F00881FFF77BFC40F6D000C2F23E
:10378000000007F035FD034613F1030F14BF0023BB
:103790000123DBB20520194604F0E2FE0346002BAC
:1037A00002D0FFF76DFCEEE0FFF76AFC41F6B07364
:1037B000C0F601035B6840F6D000C2F20000194673
:1037C0000822002307F044FD0390039B042B14BF41
:1037D00000230123DBB20620194604F0C1FE034694
:1037E000002B40F0D080FFF743FC40F6D000C2F23F
:1037F0000000FFF705FD03460720194604F0B0FE60
:103800000346002B02D0FFF73BFCBCE0FFF738FC7F
:1038100041F6B073C0F601031C68FFF761FC034674
:1038200001330022009220464FF4B4711A4643F24D
:103830006163C0F600030CF093FF024641F660633B
:10384000C2F200031A60FFF713FC40F6D000C2F288
:103850000000FFF79DFC0346042B14BF0023012347
:10386000DBB20820194604F07BFE0346002B02D091
:10387000FFF706FC87E0FFF703FC04F001FFFFF70A
:10388000F7FB40F6D000C2F2000007F049FCFFF75A
:10389000F7FBFFF7EDFB40F6D000C2F20000FFF7A8
:1038A00077FC0346002B14BF00230123DBB2092061
:1038B000194604F055FE0346002B02D0FFF7E0FB4B
:1038C00061E0FFF7DDFB41F6B073C0F601035B6812
:1038D00040F6D000C2F2000019460222002307F091
:1038E000B7FC0390039B022B14BF00230123DBB220
:1038F0000A20194604F034FE0346002B43D141F65A
:10390000B073C0F601035B6840F6D000C2F200005D
:1039100019460222002307F09BFC0390039B022B15
:1039200014BF00230123DBB20B20194604F018FE5C
:103930000346002B27D1FFF79BFB40F6D000C2F2D5
:103940000000FFF75DFC03460C20194604F008FE5A
:103950000346002B02D0FFF793FB14E0FFF790FB28
:1039600040F6D000C2F2000000210A2207F0F8FB66
:103970000346B3F1FF3F14BF00230123DBB20D2048
:10398000194604F0EDFD06B010BD00BFAFF3008096
:1039900082B0EFF311830093009B0193019B1846C3
:1039A00002B07047AFF30080AFF30080AFF3008048
:1039B00082B00190019B002B14BF00230123DBB2D6
:1039C000184602B0704700BFAFF30080AFF300802D
:1039D00082B020230193019B83F3118802B07047CA
:1039E00082B000230193019B83F3118802B07047DA
:1039F00008B5FFF7EDFF08BDAFF30080AFF300801F
:103A000008B5FFF7EDFF08BDAFF30080AFF300800E
:103A100072B67047AFF30080AFF30080AFF3008061
:103A200082B020230193019B83F3118862B602B018
:103A3000704700BFAFF30080AFF30080AFF30080AA
:103A400082B000230193019B83F3118862B602B018
:103A5000704700BFAFF30080AFF30080AFF300808A
:103A600008B5FFF7D5FF0BF0F3FD08BDAFF30080FD
:103A700008B5FFF7D5FF0BF003FE08BDAFF30080DC
:103A800008B50BF015FEFFF7DBFF08BDAFF30080B4
:103A900008B5FFF79DFF0AF073FA0BF021FE08BD91
:103AA00008B50BF03DFE0AF073FA40F65053C2F22F
:103AB00000031A6840F65053C2F200039A4213D032
:103AC00040F65053C2F200039B699A6840F6505387
:103AD000C2F200031B689B689A4205D242F2003092
:103AE000C0F601000BF054FCFFF77AFF08BD00BFE1
:103AF00008B5FFF77DFF0AF053FA0BF031FE08BD61
:103B000008B50BF04DFE0AF053FAFFF779FF08BD38
:103B100008B5FFF73DFF03461846FFF749FF034688
:103B2000002B01D0FFF7B4FF08BD00BFAFF300804A
:103B300008B5FFF72DFF03461846FFF739FF034688
:103B400083F00103DBB2002B01D0FFF7A9FF08BD12
:103B500082B00190019B0022DA6002B0704700BF82
:103B600000B583B001900BF08BFE019BDB68002B4E
:103B70000CBF00230123DBB2184603B05DF804FB41
:103B800082B020230193019B83F3118802B0704718
:103B900082B000230193019B83F3118802B0704728
:103BA0004FF080435B6A1846704700BFAFF3008058
:103BB00008B5FFF7F5FF0346184608BDAFF30080D0
:103BC00008B5FFF7DDFF0AF0DBF90BF089FD08BD52
:103BD00008B50BF0A5FD0AF0DBF940F65053C2F230
:103BE00000031A6840F65053C2F200039A4213D001
:103BF00040F65053C2F200039B699A6840F6505356
:103C0000C2F200031B689B689A4205D242F2F01090
:103C1000C0F601000BF0BCFBFFF7BAFF08BD00BF08
:103C200008B5FFF7C5FF0346184608BDAFF300808F
:103C300000B583B0FFF7C4FFFFF7F2FF0190FFF775
:103C4000C7FF019B184603B05DF804FBAFF300808B
:103C500040F65053C2F200039B691846704700BFFC
:103C600008B5FFF7F5FF03469B68184608BD00BF7F
:103C700082B00190019B019A1A6002B0704700BFA8
:103C800000B585B003900291019203980299019AC0
:103C90004FF0FF3308F00CFF05B05DF804FB00BFE8
:103CA00082B00190019B1A68019B9A420CBF0023CD
:103CB0000123DBB2184602B0704700BFAFF30080AB
:103CC00000B583B001900198002109F031F803B0EC
:103CD0005DF804FBAFF30080AFF30080AFF300802A
:103CE00008B54FF0FF3008F043FF08BDAFF3008088
:103CF00000B583B00190412004F0FAFB03B05DF8F9
:103D000004FB00BFAFF30080AFF30080AFF300808F
:103D100000B583B00190422004F0EAFB03B05DF8E7
:103D200004FB00BFAFF30080AFF30080AFF300806F
:103D300000B583B00190432004F0DAFB03B05DF8D6
:103D400004FB00BFAFF30080AFF30080AFF300804F
:103D500000B58BB040F69800C2F20000FFF788FF74
:103D600005AB40F69800C2F2000019460122FFF7A9
:103D700087FF6B4640F69800C2F200001946022207
:103D8000FFF77EFF40F69800C2F20000FFF788FFC1
:103D900003460120194604F0E3FB0346002B46D1FD
:103DA00005AB40F69800C2F20000194608F0B0FEDC
:103DB00040F69800C2F20000FFF772FF03460220AF
:103DC000194604F0CDFB0346002B30D16B4640F67C
:103DD0009800C2F20000194608F09AFE40F69800DA
:103DE000C2F20000FFF75CFF0346002B0CBF00236C
:103DF0000123DBB283F00103DBB203F00103DBB28A
:103E00000320194604F0ACFB0346002B0FD142F20D
:103E1000A010C0F60100072108F0A2FF042040F620
:103E20006051C0F6010104F0B3FB0346002B0BB058
:103E30005DF804FBAFF30080AFF30080AFF30080C8
:103E400008B54FF0FF3008F093FE08BDAFF30080D7
:103E500000B583B001904FF4FA7009F0F9FD0198B4
:103E6000012108F00DFF03B05DF804FBAFF3008003
:103E700000B583B0019040F69800C2F20000FFF751
:103E80001FFF4FF4FA7009F0E3FD40F69C00C2F208
:103E90000000FFF715FF03B05DF804FBAFF30080EF
:103EA00030B58FB0072008F08BFE4FF0FF3008F0E0
:103EB00097FF0D900D9B012B14BF00230123DBB254
:103EC0000120194604F04CFB0346002B40F0B8815A
:103ED0004FF0FF3008F084FF0D900D9B022B14BFB4
:103EE00000230123DBB20220194604F039FB03460C
:103EF000002B40F0A5814FF0FF3008F071FF0D90CE
:103F00000D9B042B14BF00230123DBB203201946B1
:103F100004F026FB0346002B40F092814FF0FF3067
:103F200008F026FE0D900D9B002B14BF00230123EB
:103F3000DBB20420194604F013FB0346002B40F0CB
:103F40007F8104F0CDFBFFF773FE034603F5FA73A0
:103F50000C9341F6B073C0F601031D68FFF780FEB5
:103F600003465C1EFFF774FE0346009328464FF499
:103F7000B471224643F65163C0F600030CF0F0FB27
:103F8000024641F66063C2F200031A604FF0FF3050
:103F900008F026FF0D900C9B323305200C991A4631
:103FA00004F02EFB0346002B40F04A810D9B012BB1
:103FB00014BF00230123DBB20620194604F0D0FA17
:103FC0000346002B40F03C814FF0FF3008F0D0FD5D
:103FD0000D900D9B002B14BF00230123DBB20720A3
:103FE000194604F0BDFA0346002B40F0298104F085
:103FF00047FB052008F0E4FD4FF0FF3008F028FFF4
:104000000D900D9B052B14BF00230123DBB208206C
:10401000194604F0A5FA0346002B40F011814FF039
:10402000FF3008F0A5FD0D900D9B002B14BF002361
:104030000123DBB20920194604F092FA0346002B53
:1040400040F0FE8004F04CFBFFF7F2FD034603F561
:10405000FA730C9341F6B073C0F601031D68FFF7C5
:10406000FFFD03465C1EFFF7F3FD03460093284661
:104070004FF4B471224643F65163C0F600030CF0CE
:104080006FFB024641F66063C2F200031A604FF014
:10409000FF3008F0DDFE0D900C9B32330A200C99A6
:1040A0001A4604F0ADFA0346002B40F0C9800D9B80
:1040B000012B14BF00230123DBB20B20194604F0AF
:1040C0004FFA0346002B40F0BB804FF0FF3008F062
:1040D0004FFD0D900D9B002B14BF00230123DBB27D
:1040E0000C20194604F03CFA0346002B40F0A8804F
:1040F00004F0C6FA40F69800C2F20000FFF7B8FDDF
:1041000040F69C00C2F20000FFF7B2FD07AB40F69C
:104110009800C2F2000019460122FFF7B1FD02AB80
:1041200040F69C00C2F2000019460422FFF7A8FDE9
:1041300004F0D6FAFFF77CFD034603F5FA730C93FF
:1041400041F6B073C0F601031C68FFF789FD034612
:104150005A1E40F66453C0F60103009320464FF404
:10416000B47143F67163C0F600030CF0F9FA02462D
:1041700041F66063C2F200031A60052008F098FE61
:104180000D900C9B32330D200C991A4604F038FA2E
:104190000346002B54D14FF0FF3008F0E9FC0D909E
:1041A0000D9B002B14BF00230123DBB20E20194608
:1041B00004F0D6F90346002B42D104F061FA07ABB4
:1041C00040F69800C2F20000194608F0A1FC02ABCC
:1041D00040F69C00C2F20000194608F099FC40F637
:1041E0009800C2F20000FFF75BFD0346002B0CBFF6
:1041F00000230123DBB283F00103DBB203F00103F0
:10420000DBB20F20194604F0ABF90346002B17D19F
:1042100040F69C00C2F20000FFF742FD0346002B6F
:104220000CBF00230123DBB283F00103DBB203F0F8
:104230000103DBB21020194604F092F90346002B6B
:104240000FB030BDAFF30080AFF30080AFF300805C
:1042500008B54FF0FF3008F08BFC08BDAFF30080CD
:1042600000B583B04FF0FF30002108F049FE019007
:10427000019B002B14BF00230123DBB20120194650
:1042800004F06EF90346002B5BD14FF0FF300021A4
:1042900008F07EFE0190019B002B14BF0023012338
:1042A000DBB20220194604F05BF90346002B48D12B
:1042B0004FF0FF30002108F0ABFE0190019B002B76
:1042C00014BF00230123DBB20320194604F048F990
:1042D0000346002B35D14FF0FF300A2108F010FEC5
:1042E0000190019B002B14BF00230123DBB20420AB
:1042F000194604F035F90346002B22D14FF0FF3068
:104300000A2108F045FE0190019B002B14BF0023F9
:104310000123DBB20520194604F022F90346002BE5
:104320000FD14FF0FF300A2108F072FE0190019B7F
:10433000002B14BF00230123DBB20620194604F032
:104340000FF903B05DF804FBAFF30080AFF300801A
:1043500008B541F69060C2F2000041F25871C2F215
:1043600000014FF4E16207F0ABF808BDAFF3008045
:1043700000B587B007F074F801AB0020194607F0CC
:10438000C7F90020102107F0CBF80590059B002B02
:104390000CBF00230123DBB20120194604F0E0F832
:1043A0000346002B40F09481059807F031F9002076
:1043B0006FF0FF0107F0B4F80590059B002B14BFC8
:1043C00000230123DBB20220194604F0C9F803469A
:1043D000002B40F07D8101AB41F69060C2F20000FD
:1043E000194607F095F941F69060C2F200001021DD
:1043F00007F096F8059041F69060C2F20000102197
:1044000007F08EF8049041F69060C2F2000010218F
:1044100007F086F80390059807F0FAF8049807F07B
:10442000F7F8039807F0F4F802AB41F69060C2F297
:104430000000194607F06CF90346012B14BF002356
:104440000123DBB20320194604F08AF80346002B4F
:1044500040F03E8141F69060C2F20000102107F06A
:104460005FF8059041F69060C2F20000102107F05D
:1044700057F8049041F69060C2F20000102107F056
:104480004FF80390039807F0C3F8049807F0C0F8BA
:10449000059807F0BDF802AB41F69060C2F200004B
:1044A000194607F035F90346012B14BF00230123F9
:1044B000DBB20420194604F053F80346002B40F009
:1044C000078141F69060C2F20000112107F028F840
:1044D000059041F69060C2F20000102107F020F82C
:1044E0000490059807F094F802AB41F69060C2F290
:1044F0000000194607F00CF90346022B14BF0023F5
:104500000123DBB20520194604F02AF80346002BEC
:1045100040F0DE8041F69060C2F20000102106F00B
:10452000FFFF059002AB41F69060C2F20000194611
:1045300007F0EEF80346012B0AD002AB41F690607B
:10454000C2F20000194607F0E3F80346022B01D13E
:10455000012300E0002303F00103DBB2062019462B
:1045600003F0FEFF0346002B40F0B280049807F0F2
:104570004FF8059807F04CF802AB41F69060C2F294
:104580000000194607F0C4F80346012B14BF0023AE
:104590000123DBB20720194603F0E2FF0346002B9C
:1045A00040F0968041F69060C2F20000102106F0C3
:1045B000B7FF059041F69060C2F20000102106F0AE
:1045C000AFFF0490059807F023F802AB41F6906026
:1045D000C2F20000194607F09BF80346022B14BFF5
:1045E00000230123DBB20820194603F0B9FF03467C
:1045F000002B6DD141F69060C2F20000202106F040
:104600008FFF0590059807F003F8049807F000F86D
:1046100002AB41F69060C2F20000194607F078F84C
:104620000346012B14BF00230123DBB209201946E6
:1046300003F096FF0346002B4AD102AB41F690608F
:10464000C2F20000194607F063F8029B41F6906041
:10465000C2F20000194606F063FF059002AB41F676
:104660009060C2F20000194607F052F80346002B92
:1046700014BF00230123DBB20A20194603F070FFA8
:104680000346002B24D1059806F0C2FF02AB41F689
:104690009060C2F20000194607F03AF80346012B79
:1046A00014BF00230123DBB20B20194603F058FF8F
:1046B0000346002B0CD1029A019B9A4214BF00239F
:1046C0000123DBB20C20194603F04AFF0346002BFE
:1046D00007B05DF804FB00BFAFF30080AFF30080CC
:1046E00082B001900023184602B07047AFF30080FB
:1046F00000B583B001904FF4FA7009F0A9F940F6C3
:104700005800C2F200000AF0BBFA40F65800C2F2AC
:10471000000007F055FE03B05DF804FBAFF3008026
:1047200000B583B0019040F2DC5009F091F940F6F9
:104730004800C2F200000AF0A3FA40F64800C2F2B4
:10474000000007F03DFE03B05DF804FBAFF300800E
:1047500000B587B002F0F4FB0590059B013304938C
:10476000059B0233039341F6B073C0F601031A6848
:1047700040F67053C0F60103009310464FF4B47135
:10478000049A44F2F163C0F600030BF0E9FF02461D
:1047900041F66063C2F200031A6041F6B073C0F6DE
:1047A00001035A6840F67453C0F6010300931046A3
:1047B0004FF4B471039A44F22173C0F600030BF076
:1047C000CFFF024641F66063C2F200035A6040F632
:1047D0005800C2F200000AF053FA02F0B1FB0246A0
:1047E000059B9A4214BF00230123DBB20120194626
:1047F00003F0B6FE0346002B40F04F814FF47A7071
:1048000009F026F902F09CFB0246049B9A4214BF71
:1048100000230123DBB20220194603F0A1FE034668
:10482000002B40F03A8140F64800C2F200000AF046
:1048300027FA02F085FB0246049B9A4214BF00232C
:104840000123DBB20320194603F08AFE0346002B46
:1048500040F023814FF47A7009F0FAF802F070FB0F
:104860000246039B9A4214BF00230123DBB20420BB
:10487000194603F075FE0346002B40F00E8140F60A
:104880004800C2F2000007F09BFD02F059FB02460F
:10489000049B9A4214BF00230123DBB20520194672
:1048A00003F05EFE0346002B40F0F7804FF47A7071
:1048B00009F0CEF802F044FB0246049B9A4214BF72
:1048C00000230123DBB20620194603F049FE03460C
:1048D000002B40F0E28007F06BFE02F031FB024655
:1048E000059B9A4214BF00230123DBB2072019461F
:1048F00003F036FE0346002B40F0CF8003F0C0FEED
:1049000041F6B073C0F601031A6840F67853C0F65A
:104910000103009310464FF4B471049A44F2F1631A
:10492000C0F600030BF01CFF024641F66063C2F2C2
:1049300000031A6041F6B073C0F601035A6840F6EE
:104940007C53C0F60103009310464FF4B471039AF0
:1049500044F22173C0F600030BF002FF024641F659
:104960006063C2F200035A6040F65800C2F20000D1
:104970000AF086F902F0E4FA0246059B9A4214BF57
:1049800000230123DBB20820194603F0E9FD0346AA
:10499000002B40F082804FF47A7009F059F802F051
:1049A000CFFA0246049B9A4214BF00230123DBB2D4
:1049B0000920194603F0D4FD0346002B6DD140F6C3
:1049C0004800C2F200000AF05BF902F0B9FA0246B0
:1049D000049B9A4214BF00230123DBB20A2019462C
:1049E00003F0BEFD0346002B57D14FF47A7009F057
:1049F0002FF802F0A5FA0246039B9A4214BF002347
:104A00000123DBB20B20194603F0AAFD0346002B5D
:104A100043D102F05DFA40F64800C2F2000007F010
:104A20004FFD0BF09DFB02F05BFA02F089FA0246A3
:104A3000049B9A4214BF00230123DBB20C201946C9
:104A400003F08EFD0346002B27D14FF47A7008F057
:104A5000FFFF02F075FA0246049B9A4214BF00233E
:104A60000123DBB20D20194603F07AFD0346002B2B
:104A700013D107F09DFD02F063FA0246059B9A42AE
:104A800014BF00230123DBB20E20194603F068FD9A
:104A90000346002B01D103F0F3FD07B05DF804FBE2
:104AA00008B540F64800C2F200000AF0D1F808BD8F
:104AB00000B583B002F044FA019040F64800C2F21B
:104AC00000000AF075F903468DF803309DF80330B5
:104AD0000120194603F044FD0346002B79D140F62E
:104AE0004800C2F200000AF063F903468DF8033073
:104AF0009DF80330002B0CBF00230123DBB283F0B1
:104B00000103DBB203F00103DBB20220194603F01C
:104B100027FD0346002B5CD102F0DAF940F648008D
:104B2000C2F2000007F0CCFC02F0DAF940F64800CF
:104B3000C2F2000002F0BCF903460320194603F05C
:104B40000FFD0346002B44D140F64803C2F2000398
:104B50009B68002B14BF00230123DBB204201946FD
:104B600003F0FEFC0346002B33D102F0E9F90246C4
:104B7000019B9A4214BF00230123DBB20520194692
:104B800003F0EEFC0346002B23D140F64800C2F2AE
:104B900000000AF075F807F00BFD40F64800C2F27D
:104BA000000002F085F903460620194603F0D8FC00
:104BB0000346002B0DD140F64803C2F200039B6868
:104BC000002B14BF00230123DBB20720194603F09A
:104BD000C7FC03B05DF804FBAFF30080AFF30080C7
:104BE00008B540F66800C2F2000007F0D1FD40F6BB
:104BF0004800C2F200000AF02BF808BDAFF30080B5
:104C000000B583B0019040F64800C2F200000AF0FF
:104C100037F840F66800C2F2000007F059FE019B29
:104C20001B78184603F064FC40F64800C2F200000E
:104C300007F0C6FB03B05DF804FB00BFAFF30080D4
:104C400000B585B002F07CF9039041F6B073C0F670
:104C500001031968039B5A1C40F68053C0F60103F8
:104C6000009308464FF4B47144F60143C0F60003C4
:104C70000BF076FD024641F66063C2F200031A6053
:104C800041F6B073C0F601035968039B9A1C40F6C5
:104C90007853C0F60103009308464FF4B47144F60C
:104CA0000143C0F600030BF05BFD024641F6606372
:104CB000C2F200035A6041F6B073C0F6010399686E
:104CC000039BDA1C40F67C53C0F6010300930846B0
:104CD0004FF4B47144F60143C0F600030BF040FDFD
:104CE000024641F66063C2F200039A6041F6B07377
:104CF000C0F60103D968039B1A1D40F67053C0F635
:104D00000103009308464FF4B47144F60143C0F622
:104D100000030BF025FD024641F66063C2F200037A
:104D2000DA6041F6B073C0F601031969039B5A1D9E
:104D300040F67453C0F60103009308464FF4B47173
:104D400044F60143C0F600030BF00AFD024641F6AB
:104D50006063C2F200031A6102F0BAF840F668001C
:104D6000C2F2000007F054FD40F66800C2F20000F5
:104D700007F04EFD40F66800C2F2000007F048FD63
:104D800040F66800C2F2000007F042FD40F66800FD
:104D9000C2F2000007F03CFD0BF0E2F902F0A0F8CF
:104DA00003F06EFC012040F68451C0F6010103F0CF
:104DB000EFFB05B05DF804FBAFF30080AFF30080BC
:104DC00008B540F66800C2F2000007F0E1FC40F6CA
:104DD0004800C2F2000009F03BFF08BDAFF30080BD
:104DE00000B585B002F0ACF8039041F6B073C0F6A0
:104DF00001031968039B5A1C40F68053C0F6010357
:104E0000009308464FF4B47144F60143C0F6000322
:104E10000BF0A6FC024641F66063C2F200031A6082
:104E200041F6B073C0F601035968039B9A1C40F623
:104E30007853C0F60103009308464FF4B47144F66A
:104E40000143C0F600030BF08BFC024641F66063A1
:104E5000C2F200035A6041F6B073C0F601039968CC
:104E6000039BDA1C40F67C53C0F60103009308460E
:104E70004FF4B47144F60143C0F600030BF070FC2C
:104E8000024641F66063C2F200039A6041F6B073D5
:104E9000C0F60103D968039B1A1D40F67053C0F693
:104EA0000103009308464FF4B47144F60143C0F681
:104EB00000030BF055FC024641F66063C2F20003AA
:104EC000DA6041F6B073C0F601031969039B5A1DFD
:104ED00040F67453C0F60103009308464FF4B471D2
:104EE00044F60143C0F600030BF03AFC024641F6DB
:104EF0006063C2F200031A6140F66800C2F200006B
:104F000007F0AEFC03F0BCFB012040F68451C0F674
:104F1000010103F03DFB05B05DF804FBAFF3008039
:104F200008B540F66800C2F2000007F031FC40F618
:104F30004800C2F2000009F08BFE40F65800C2F2B1
:104F4000000009F085FE08BDAFF30080AFF30080DC
:104F500000B583B0019040F65800C2F2000009F09D
:104F60008FFE40F64800C2F2000009F089FE40F6CC
:104F70006800C2F200004FF0FF3107F0F9FC019B1E
:104F80001B78184603F0B4FA40F64800C2F200005D
:104F900007F016FA40F65800C2F2000007F010FAC7
:104FA00003B05DF804FB00BFAFF30080AFF30080F7
:104FB00000B583B0019040F65800C2F2000009F03D
:104FC0005FFE019B1B78184603F092FA40F65800EA
:104FD000C2F2000007F0F4F903B05DF804FB00BF73
:104FE00000B585B001F0ACFF039041F6B073C0F698
:104FF00001031968039B5A1C40F67453C0F6010361
:10500000009308464FF4B47144F65173C0F60003A0
:105010000BF0A6FB024641F66063C2F200031A6081
:1050200041F6B073C0F601035968039B9A1C40F621
:105030007C53C0F60103009308464FF4B47144F664
:105040000143C0F600030BF08BFB024641F66063A0
:10505000C2F200035A6041F6B073C0F601039968CA
:10506000039BDA1C40F67053C0F601030093084618
:105070004FF4B47144F6B173C0F600030BF070FB4B
:10508000024641F66063C2F200039A6040F668008F
:10509000C2F2000007F094FB40F66800C2F2000084
:1050A00007F08EFB03F0ECFA012040F68C51C0F6BD
:1050B000010103F06DFA05B05DF804FBAFF3008069
:1050C00040F65053C2F200039B691846704700BF78
:1050D00008B5FFF7F5FF03469B68184608BD00BFFB
:1050E00082B00190019B5B6B184602B0704700BF15
:1050F00000B583B001900198412108F059F801985A
:10510000422108F055F80198432108F051F803B006
:105110005DF804FBAFF30080AFF30080AFF30080D5
:1051200030B585B041F6B073C0F601031D68FFF7D6
:10513000CFFF03465C1CFFF7C3FF034600932846DE
:105140004FF4B471224645F2F103C0F600030BF0B0
:1051500007FB024641F66063C2F200031A6008F0E2
:105160005FF803900398FFF7BBFF02900398029942
:1051700008F086F8029BDBB2184603F0B9F908F094
:105180004FF803900398FFF7ABFF02900398029942
:1051900008F076F8029BDBB2184603F0A9F908F094
:1051A0003FF803900398FFF79BFF02900398029942
:1051B00008F066F8029BDBB2184603F099F901206B
:1051C00040F68C51C0F6010103F0E2F905B030BDA4
:1051D00082B020230193019B83F3118802B07047B2
:1051E00082B000230193019B83F3118802B07047C2
:1051F00008B5FFF7EDFF08F0C3FE0AF071FA08BD2D
:1052000008B50AF08DFA08F0C3FE40F65053C2F21A
:1052100000031A6840F65053C2F200039A4213D0BA
:1052200040F65053C2F200039B699A6840F650530F
:10523000C2F200031B689B689A4205D242F29010AA
:10524000C0F601000AF0A4F8FFF7CAFF08BD00BFCE
:1052500000B583B001900AF013FB019B9B681846D0
:1052600003B05DF804FB00BFAFF30080AFF3008034
:1052700000B583B001900AF003FB019B1C33184674
:10528000FFF7E6FF0346184603B05DF804FB00BFD6
:1052900000B583B001900AF0F3FA019B1033184671
:1052A000FFF7D6FF0346184603B05DF804FB00BFC6
:1052B00008B540F67000C2F2000041F25871C2F227
:1052C0000001052208F05CF808BD00BFAFF30080C4
:1052D00000B585B0FFF78CFF40F67000C2F2000009
:1052E000FFF7C6FF0346052B14BF00230123DBB2E3
:1052F0000120194603F034F90346002B03D0FFF7D1
:105300007FFF00F090BCFFF77BFF002303931CE0BE
:10531000039B423340F67000C2F2000019464FF082
:10532000FF3208F0A5F80290029B002B14BF002367
:105330000123DBB20220194603F012F90346002BC9
:1053400040F07184039B01330393039B032BDFD94C
:1053500040F67000C2F2000041214FF0FF3208F029
:1053600017F90290029B002B14BF00230123DBB22C
:105370000320194603F0F4F80346002B40F0538451
:1053800040F67000C2F200005821012208F070F8C7
:105390000290029BB3F1FF3F14BF00230123DBB255
:1053A0000420194603F0DCF80346002B40F03B8450
:1053B000FFF71EFF40F67000C2F20000582108F00F
:1053C000A7F80290FFF71CFF029BB3F1FF3F14BF49
:1053D00000230123DBB20520194603F0C1F8034680
:1053E000002B40F0208440F67000C2F200005821EB
:1053F000012208F0CDF80290029BB3F1FF3F14BFE9
:1054000000230123DBB20620194603F0A9F8034666
:10541000002B40F00884FFF7EBFE40F67000C2F26C
:105420000000582108F00CF90290FFF7E9FE029BFA
:10543000B3F1FF3F14BF00230123DBB2072019465D
:1054400003F08EF80346002B40F0ED83FFF7D0FE0B
:1054500040F67000C2F20000FFF70AFF0346002B7F
:1054600014BF00230123DBB20820194603F078F8AB
:105470000346002B02D0FFF7C3FED4E3FFF7C0FEC4
:10548000FFF7B6FE40F67000C2F20000FFF700FF23
:105490000346052B14BF00230123DBB20920194664
:1054A00003F05EF80346002B02D0FFF7A9FEBAE333
:1054B000FFF7A6FEFFF79CFE40F67003C2F2000362
:1054C000DA6840F67003C2F200039B689A4214BF88
:1054D00000230123DBB20A20194603F041F80346FA
:1054E000002B02D0FFF78CFE9DE3FFF789FE00231F
:1054F000039320E001AB40F67000C2F200001946B1
:105500004FF0FF3208F0DCF80290029B002B14BF32
:1055100000230123DBB20B20194603F021F80346D8
:10552000002B40F08083019BDBB2184602F0E0FFC5
:10553000039B01330393039B042BDBD90C2040F620
:105540008451C0F6010103F023F80346002B40F01C
:105550006A83039B423340F67000C2F20000194692
:105560004FF0FF3207F084FF0290029B002B14BF24
:1055700000230123DBB20D20194602F0F1FF0346A0
:10558000002B40F0508301AB40F67000C2F20000E7
:1055900019464FF0FF3208F093F80290029B002B5F
:1055A00014BF00230123DBB20E20194602F0D8FFFE
:1055B0000346002B40F0378340F67003C2F200032D
:1055C0001A6840F67003C2F200039B689A4214BF47
:1055D00000230123DBB20F20194602F0C1FF03466E
:1055E000002B40F0208340F67003C2F200031A68DB
:1055F00040F67003C2F20003DB689A4214BF002336
:105600000123DBB21020194602F0AAFF0346002B4B
:1056100040F0098301AB40F67000C2F20000194669
:10562000012208F04DF80290029BB3F1FF3F14BF36
:1056300000230123DBB21120194602F091FF03463B
:10564000002B40F0F082FFF7D3FD01AB40F6700075
:10565000C2F20000194608F08BF80290FFF7D0FD67
:10566000029BB3F1FF3F14BF00230123DBB21220E2
:10567000194602F075FF0346002B40F0D482FFF775
:10568000B7FD40F67000C2F20000FFF7F1FD0346DF
:10569000052B14BF00230123DBB21320194602F0AF
:1056A0005FFF0346002B02D0FFF7AAFDBBE2FFF726
:1056B000A7FDFFF79DFD40F67000C2F20000FFF766
:1056C000E7FD0346002B14BF00230123DBB21420A7
:1056D000194602F045FF0346002B02D0FFF790FD6C
:1056E000A1E2FFF78DFDFFF783FD40F67003C2F2E4
:1056F0000003DA6840F67003C2F200039B689A4226
:1057000014BF00230123DBB21520194602F028FF45
:105710000346002B02D0FFF773FD84E2FFF770FD14
:10572000FFF766FD40F67000C2F20000412107F06D
:10573000EFFE0290029B002B14BF00230123DBB27B
:105740001620194602F00CFF0346002B40F06B8236
:1057500040F67000C2F20000422107F0D9FE02902C
:10576000029B002B14BF00230123DBB21720194634
:1057700002F0F6FE0346002B40F0558240F6700022
:10578000C2F20000432107F0C3FE0290029B002BEF
:1057900014BF00230123DBB21820194602F0E0FEFB
:1057A0000346002B40F03F8240F67000C2F200003A
:1057B000442107F0ADFE0290029B002B14BF002392
:1057C0000123DBB21920194602F0CAFE0346002B62
:1057D00040F0298240F67000C2F20000452107F037
:1057E00097FE0290FFF70CFD029B002B14BF0023D5
:1057F0000123DBB21A20194602F0B2FE0346002B49
:1058000040F0118240F67003C2F20003DA6840F6FD
:105810007003C2F200039B689A4214BF0023012365
:10582000DBB21B20194602F09BFE0346002B40F022
:10583000FA810023039322E0FFF7DAFC01AB40F684
:105840007000C2F20000194607F092FF0290FFF7C5
:10585000D7FC029B002B14BF00230123DBB21C20CA
:10586000194602F07DFE0346002B40F0DC81019BCF
:10587000DBB2184602F03CFE039B01330393039B0B
:10588000042BD9D91D2040F68451C0F6010102F045
:105890007FFE0346002B40F0C681FFF7A9FC40F6CF
:1058A0007000C2F20000FFF7E3FC0346052B14BFB3
:1058B00000230123DBB21E20194602F051FE0346ED
:1058C000002B02D0FFF79CFCADE1FFF799FCFFF73E
:1058D0008FFC40F67000C2F20000FFF7D9FC0346CF
:1058E000002B14BF00230123DBB21F20194602F056
:1058F00037FE0346002B02D0FFF782FC93E1FFF74F
:105900007FFC40F67003C2F20003DA6840F67003D1
:10591000C2F200039B689A4214BF00230123DBB24A
:105920002020194602F01CFE0346002B40F07B812C
:10593000FFF75EFC40F67000C2F20000452107F060
:105940007FFE0290029B002B14BF00230123DBB2D9
:105950002120194602F004FE0346002B40F063812B
:1059600040F67000C2F20000442107F069FE029088
:10597000029B002B14BF00230123DBB22220194617
:1059800002F0EEFD0346002B40F04D8140F6700022
:10599000C2F20000432107F053FE0290029B002B4D
:1059A00014BF00230123DBB22320194602F0D8FDE7
:1059B0000346002B40F0378140F67000C2F2000031
:1059C000422107F03DFE0290029B002B14BF0023F2
:1059D0000123DBB22420194602F0C2FD0346002B4E
:1059E00040F0218140F67000C2F20000412107F032
:1059F00027FE0290FFF704FC029B002B14BF00233C
:105A00000123DBB22520194602F0AAFD0346002B34
:105A100040F0098140F67003C2F20003DA6840F6F4
:105A20007003C2F200039B689A4214BF0023012353
:105A3000DBB22620194602F093FD0346002B40F00E
:105A4000F2800023039322E0FFF7D2FB01AB40F684
:105A50007000C2F20000194607F08AFE0290FFF7BC
:105A6000CFFB029B002B14BF00230123DBB22720B6
:105A7000194602F075FD0346002B40F0D480019BCF
:105A8000DBB2184602F034FD039B01330393039B02
:105A9000042BD9D9282040F68451C0F6010102F028
:105AA00077FD0346002B40F0BE80FFF7A1FB40F6D8
:105AB0007000C2F20000FFF7DBFB0346052B14BFAA
:105AC00000230123DBB22920194602F049FD0346D9
:105AD000002B02D0FFF794FBA5E0FFF791FBFFF747
